:020000040800F2
:100000002010002079020008FD1D0008A51D000831
:10001000F91D0008771C0008E32900080000000013
:10002000000000000000000000000000C9210008DE
:100030007B1C00080000000071200008DD22000881
:10004000930200089302000893020008930200083C
:10005000930200089302000893020008930200082C
:10006000930200089302000893020008930200081C
:10007000930200089302000893020008930200080C
:1000800093020008930200089302000893020008FC
:1000900093020008930200089302000893020008EC
:1000A00093020008930200089302000893020008DC
:1000B0009302000841230008552400089302000819
:1000C00093020008930200089302000893020008BC
:1000D0009302000801260008892600089302000800
:1000E000930200089302000893020008930200089C
:1000F000930200089302000893020008930200088C
:10010000930200089302000893020008930200087B
:10011000930200089302000893020008930200086B
:10012000930200089302000893020008930200085B
:1001300000F002F800F090F80AA090E8000C824469
:100140008344AAF10107DA4501D100F085F8AFF246
:10015000090EBAE80F0013F0010F18BFFB1A43F0A5
:10016000010318470037000020370000103A24BF71
:1001700078C878C1FAD8520724BF30C830C144BF0C
:1001800004680C607047000000230024002500264E
:10019000103A28BF78C1FBD8520728BF30C148BFEA
:1001A0000B6070476E2900F0FE82702900F06984B0
:1001B000662902F08D87652902F08A87672902F097
:1001C0008787612902F0868703681B0A28BF41F0F0
:1001D0008001692900F0D080642900F0CD80752964
:1001E00000F0CA806F2900F0F783782900F0358489
:1001F000E92900F09183E42900F08E83F52900F0CD
:100200008B83EF2900F0F483F82900F0348403682D
:10021000DB0928BF41F08001632900F000837329C6
:1002200000F00583E32901F01180F32901F0168025
:10023000002070471FB501F067F80400002000217E
:1002400002F030FF401C60600020002102F014FF2B
:10025000E0601FBD10B510BD01F028F81146FFF792
:10026000E9FF02F009FD01F001F903B4FFF7F2FF25
:1002700003BC02F0D3FB000009488047094800474F
:10028000FEE7FEE7FEE7FEE7FEE7FEE7FEE7FEE746
:10029000FEE7FEE704480549054A064B70470000A3
:1002A000E122000831010008200A0020201000206F
:1002B000200C0020200C0020704700001CB50C46CC
:1002C000064B7B4469460090204600F086FA0446BF
:1002D0000020694600F094FA20461CBD3B05000052
:1002E0000FB4044910B503AA029800F0A5FA10BC97
:1002F0005DF814FB3C0000200FB41CB5084B06AAA7
:100300007B4469460090059800F067FA0446002097
:10031000694600F075FA20461CBC5DF814FB00002D
:10032000FD04000070B50C460546012A05D028786A
:10033000800600D5EA69002302E0012305E05B1C8A
:10034000934202D2E05C0028F9D1A869E618C01AED
:10035000A861286A18442862284600F092F904E04F
:10036000D5E9012114F8010B9047B442F8D328468F
:1003700000F09DF970BD00002DE9F0410646002413
:1003800010687529314616A510D000F0A1F9002893
:1003900002DA404213A507E031688A0701D512A5A9
:1003A00002E0490704D511A5012401E000F099F904
:1003B00000210A2206F1240709E0B0FBF2FCB0FBA1
:1003C000F2F302FB1C00303078541846491C002818
:1003D000F3D123462A463046BDE8F04100F08AB901
:1003E000000000002D0000002B0000002000000095
:1003F0002DE9F05F894604464FF0000ADFF874B13A
:10040000FB44C0F820A02046E1688847002874D04B
:10041000252806D0D4E901219047206A401C20629B
:10042000F1E700265F462046E16888472028054618
:1004300007DB312D05D2781910F8200C08B10643DE
:10044000F1E7B00701D526F00406C4F81CA0002788
:10045000C4F818A02A2D09D0284602F0D8FA38B3DB
:1004600004EB8708303DC8F8185019E059F8041B10
:10047000204604EB87029161E1688847012F054619
:1004800018D1E069002820DA26F020061DE0D8F80F
:10049000180000EB800005EB40003038C8F8180069
:1004A0002046E1688847054602F0B1FA0028EED1FF
:1004B000012F0AD02E2D08D12046E16888477F1CE5
:1004C0000546022F46F02006C4DBA069002803DAA7
:1004D000404246F00106A061F00701D026F0100668
:1004E0006C2D0BD0682D09D04C2D39D06A2D35D00C
:1004F000742D35D07A2D33D016E038E0E1682F46E0
:1005000020468847B842054609D16C2F26D04FF4C3
:100510008060E168064320468847054604E06C2F6A
:100520001AD04FF4807006430DB3A5F1410019288D
:1005300002D8203546F400664A4629462046266001
:100540004E46FFF72FFE80B101280BD0F61D26F096
:10055000070000F1080956E74020E4E78020D8E7CB
:100560000020D6E706F104094DE7284652E7206A45
:10057000BDE8F09FC432000030B505460B462A4660
:1005800013F8014B12F8010B08B1A042F8D01CB1CE
:10059000002802D06D1CF1E7284630BD40EA010377
:1005A00010B59B070FD1042A0DD310C808C9121F1C
:1005B0009C42F8D020BA19BA884201D9012010BD56
:1005C0004FF0FF3010BD1AB1D30703D0521C07E023
:1005D000002010BD10F8013B11F8014B1B1B07D187
:1005E00010F8013B11F8014B1B1B01D1921EF1D1F8
:1005F000184610BD40EA0103024630B59B0710D1F2
:100600004FF0013400E008C208C91D1B9D4315EAE4
:10061000C41FF8D013F0FF0102F8011B0DD01B0A14
:10062000F8E711F8013B002B02F8013B05D011F867
:10063000013B002B02F8013BF3D130BD10B5431C48
:1006400002E010F8011B71B18107FAD14FF00132BD
:1006500002C88C1A8C4314EAC211F9D0C01A0A06D7
:1006600003D0C01E10BDC01A10BD0A0401D0801EE8
:1006700010BD0902FCD0401E10BD70477047704786
:10068000704770B5044685690068C10601D53026FB
:1006900000E02026C00707D070BDD4E90121304614
:1006A0009047206A401C20626D1EF6D570BD70B563
:1006B000044685690078C00707D170BDD4E90121DF
:1006C00020209047206A401C20626D1EF6D570BD28
:1006D00009684A0501D540B27047C905FCD500B28A
:1006E000704709684A0501D5C0B27047C905FCD5F5
:1006F00080B270472DE9F0470D4699469246044670
:1007000000F124080168880604D5E06921F0100191
:10071000216000E00120A84201DD471B00E0002726
:10072000A1697A1902EB0900081AA0612078C006B5
:1007300002D42046FFF7A5FF002608E0D4E90121F6
:100740001AF806009047206A401C761C20624E452D
:10075000F4DB2078C0060AD52046FFF792FF06E0BA
:10076000D4E9012130209047206A401C2062381EC5
:10077000A7F10107F4DC07E0D4E9012118F805002E
:100780009047206A401C2062281EA5F10105F3DC79
:100790002046FFF78CFF2078000602D50220BDE836
:1007A000F0870120FBE711680268006A530501D554
:1007B00008700AE0D30501D5088006E0130603D5CA
:1007C000C217C1E9000200E0086001207047000084
:1007D00001694A1C02610878704700B58FB0CDE905
:1007E00001310021059105497944CDE903101146F5
:1007F0006846FFF7FDFD0FB000BD0000E5FFFFFFFD
:100800000A6802F8010B0A60704710B5436913B11A
:10081000AFF3008001E0FFF785FD012010BD1278E5
:1008200000F124010A7000224A700122EDE71168EC
:100830004FF0FF32E9E70000074B70B50D467B44EF
:10084000FFF7CBFF0446284600F00CFD10B14FF037
:10085000FF3070BD204670BD6F2200002DE9FF5FA4
:1008600015468A460446DFF8AC80F8440027D8E9EC
:1008700000103E46CDE9001010E03AF816106A4626
:1008800002A800F0F3FC411C07D02178890603D5AB
:10089000E269391891420DD80744761C2078800609
:1008A00002D5E069B84205DDAE42E6DB3AF8160053
:1008B0000028E2D1A069C01BA0612046FFF7E1FE3D
:1008C000D8E90010CDE90010002017E03AF8181020
:1008D0006A4602A800F0CAFCB0F1FF3F81460BD087
:1008E00000250DF1080B05E0D4E901211BF80500F6
:1008F00090476D1C4D45F7D308F10100B04280468A
:10090000E4DB206A384420622046FFF7D0FEBDE8D1
:10091000FF9F00006E2E00002DE9F0418046D21DA1
:1009200022F007020025D2E90002F52915A614D00D
:10093000011E72F1000106DA0023D0EB030063EB25
:10094000020211A608E0D8F800108B0701D50FA607
:1009500002E0490701D50EA601251146002408F141
:10096000240704E000F098F830323A55641C50EA4D
:100970000102F7D12B46324621464046BDE8F04100
:10098000FFF7B8BE000000002D0000002B000000A3
:100990002000000030B4002100F1240408E002F03F
:1009A0000705D208303542EA4372DB086554491C1A
:1009B00052EA0305F3D10468002310A2250708D5E5
:1009C00004F020040C4304D0C46901230CA2641E6B
:1009D000C46130BCFFF78EBE10B5044621461068D6
:1009E000FFF77FFE02462046BDE810400023D1E716
:1009F000D21D22F00701D1E90023CBE7000000005F
:100A000030000000F0B40D460188090502D5214CE4
:100A10007C4402E01F4C7C440E34002100F124068B
:100A200008E002F00F071209E75D42EA03721B09B2
:100A30007754491C52EA0307F3D1027800231207C6
:100A400004D5702D06D009B1022311342246F0BC22
:100A5000FFF750BE01231034F8E770B504460D4689
:100A600021461068FFF73DFE024629462046BDE8B4
:100A700070400023C6E7D21D22F00703D3E900230C
:100A8000C0E70368126843F0200303600823C361D2
:100A90000023B7E7D02C000030B5B0F10A024FEACE
:100AA000900E71F100034EEA817EB0EB0E0061EB17
:100AB00091014FEA101E4EEA017E10EB0E0041EB51
:100AC00011114FEA102E4EEA016E10EB0E0041EBB1
:100AD00011214FEA104E4EEA014E10EB0E0041EB91
:100AE0001141401841F100014FEAD00040EA417045
:100AF0004FEAD10110EB80054FEA810444EA90747B
:100B000044EB01046D1944EB0404521BA3414FF064
:100B1000000348BF0A3200D530BD401C41F100013E
:100B200030BD70472DE9FF4F0C461E464FF0FF3792
:100B30008BB0D2E90001DDF860800A908A46C1F3EB
:100B40000A5505B93D46002108464FF00000BAF1AC
:100B5000000F00F4400005DA00EB80004FF4400184
:100B600001EA50004FEA9059B9F1010F00DDB94692
:100B70000A9850EA4A000ED044F61050A5F2FF350C
:100B800045432F14B8F1000F1ED07542291E1EDDFB
:100B9000C9F100021CE0B8F1010F4FF0000001D0D4
:100BA000302103E0F24305E02154401CB042FBDB5E
:100BB00030460022002121540B99C1F80880C1E978
:100BC00000200FB0BDE8F08FBD1B6D1CDEE74A466C
:100BD00000DA694206A800F0DBFB06AB93E80700E9
:100BE00003AB83E8070050460A9900F089FC8DE8C2
:100BF0000700A0F500501F3800900398002D09DD74
:100C000042F21F014A46084403A90390684600F0D7
:100C1000E8FE08E0A0F500504A461F3803A90390FB
:100C2000684600F0F2FE8DE807000004000C03D0D7
:100C30004FF0FF30410800E01046B8F1000F03D03C
:100C40000022009215461EE0751E05D4FFF724FF12
:100C5000303262556D1EF9D5B3460122084302D0E9
:100C600000227F1C04E02078302801D100227F1E62
:100C7000002A099786D01DE0112D07DAFFF70CFF37
:100C8000303262556D1C50EA0102F5D1084302D0A2
:100C90000098C8B10EE00021681E05E0235C625C8C
:100CA00063542254401E491C8142F7DBAB46A81B0B
:100CB000401E0990002004F80B000B98099AC0F818
:100CC0000880C0E9002B7CE711264FF0000859E7A7
:100CD0002DE9F04F88460446D21D22F0070191B05D
:100CE000D1E90001CDE90A0101F07DFE02460B9831
:100CF000C00F01D02D2007E02068810701D52B20EF
:100D000002E0202101EAC000032A099001D0072A4D
:100D100005DB03464146204600F0FAFA0BE1207855
:100D2000800601D5E06900E00620B8F1650F814634
:100D300006D0B8F1660F18D0B8F1670F70D131E066
:100D40000020B9F1110F009001DB112301E009F13E
:100D500001030AAA01A90CA8FFF7E4FEDDE90C7063
:100D6000002609F10105834647E001204B4600902B
:100D70004FF000470AAA01A90CA8FFF7D3FEDDE94E
:100D80000DB00C995D46002610B909F101000D184F
:100D9000B9EB050003D4C0F1FF3609F10105A5EB5D
:100DA00009002BE0B9F1010F01DA4FF00109002031
:100DB000B9F1110F0090484601DD112300E0034610
:100DC0000AAA01A90CA8FFF7ADFEDDE90C704D469B
:100DD00000268346207800070AD4AB4500DA5D463A
:100DE00001A8012D04DD411911F8011C302907D09B
:100DF0004F4502DA17F1040F04DA012082460FE0B2
:100E00006D1EEEE7002F02DCED1B3E4403E0781C74
:100E1000A84200DD7D1CB81B00F1010A4FF000471D
:100E20002078000703D4AA4501DB4FF0FF3A0021E8
:100E3000B7F1004F0DF143088DF8431024D0022084
:100E40002B23002F01DA7F422D230A21021EA0F15D
:100E5000010000DC5FB197FBF1FC97FBF1F201FBB5
:100E60001C7C17460CF1300C08F801CDEEE7A8F118
:100E7000010003702188090501D5452100E06521A5
:100E8000A0F1010800F8011C09980FA9A1EB0807BF
:100E9000FF1D00B10120411901EBEA70A16938443E
:100EA000081A401EA0612078C00602D42046FFF731
:100EB000E8FB099828B1D4E901219047206A401C39
:100EC00020622078C00622D52046FFF7DAFB1EE01C
:100ED000002E04DBB34502DD01A8805D00E0302078
:100EE000D4E901219047206A401C2062761CAAF1B7
:100EF00001005FEA000A0AD100F006FAC068016842
:100F0000405CD4E901219047206A401C2062281EE1
:100F1000A5F10105DCDC07E0D4E9012118F8010B9B
:100F20009047206A401C2062381EA7F10107F3DCBD
:100F30002046FFF7BCFB032011B043E62DE9F04F3C
:100F400004460D46D21D22F0070089B0D0E9009278
:100F500048461746394601F046FD0246F80F01D0D3
:100F60002D2307E02068810701D52B2302E02021F3
:100F700001EAC0038DF820300BB1012000E0002011
:100F8000032A824601D0072A04DB2946204600F0C6
:100F9000BFF93DE12078800601D40D2500E0E56928
:100FA000C7F30A560D2D49DA00214FEA175B0846B0
:100FB0004FF00000002F00F4400007DA00EB800043
:100FC0004FF4400100EBD07001EA60008115012967
:100FD00001DD4FF0FF3100224FEA850CBCF1180F04
:100FE00006D31346ACF118004FF08052C24003E024
:100FF0004FF4801323FA0CF30CF10C0CBCF1200F0E
:1010000004D3ACF1200C09FA0CF001E007FA0CF063
:1010100000294FF0004801DD18B90FE00ED140451E
:101020000CD319EB02095F4121B9404502D19F431E
:1010300029EA0209BBEB175F00D0761C2088000567
:1010400002D57B48784402E079487844193808AAE8
:10105000302302F80A30037C0AF10101002E0AF164
:10106000020A53546A4602DC4FF0300101E04FF0AF
:1010700031014FF001088DF8001002D0A6F2FF36C2
:1010800003E059EA470100D06A4E002D02DC2178C6
:10109000090704D54FF002082E218DF80110C4462F
:1010A00000210BE0C7F303433F01C35C491C6D1EE5
:1010B00002F80830052908F1010801DA002DF1DCF9
:1010C00000210CE000EB1973491C1B786D1E0829E8
:1010D00002F808304FEA091908F1010801DA002D79
:1010E000F0DC2178890602D514E0A8F10108E0457A
:1010F00005DD02EB080111F8011C3029F5D0B8F12B
:10110000000F07DD02EB080111F8011C2E2901D1A7
:10111000A8F10108002D05DD3E2102F808106D1E22
:1011200008F10108407C002E02F8080008F10108CF
:1011300004DA2D20764202F8080002E02B2002F8A3
:1011400008000A214FF47A70864208F101080BDB8F
:1011500096FBF0F3303302F8083096FBF0F308F119
:10116000010800FB136601E0642E0CDB642096FB93
:10117000F0F3303302F8083096FBF0F308F1010881
:1011800000FB136601E00A2E06DB96FBF1F030301F
:1011900002F8080008F1010896FBF1F001FB10606D
:1011A000303002F80800A16908F1010808EB0502D7
:1011B00002EB0A00081AA0612078C00602D420467B
:1011C000FFF75FFA216A08AE01EB0A00206204E033
:1011D000D4E9012116F8010B9047BAF1010AF7D2C0
:1011E0002078C00602D52046FFF74BFA6E4609E08C
:1011F00016F8010B3E280FD0D4E901219047206A50
:10120000401C2062B8F10108F2D22046FFF74FFAE5
:1012100009B00320BDE8F08F206A2844206203E073
:10122000D4E90121302090476D1EEBD3F8E7000090
:10123000D726000002FCFFFF10B5436913B1AFF3DE
:10124000008001E0FFF70AFB012010BD128800F1C9
:10125000240182840022C2840122EDE711684FF04C
:10126000FF32E9E7007B00F08000704770B516465A
:101270000C46054600F040F8036893F80101012888
:1012800006D0FF2C0FD8185D68B101202C7070BDFE
:10129000D3F807013246214603F2071303442846D8
:1012A000BDE8704018474FF0FF3070BD754600F044
:1012B000E3F8AE4605006946534620F00700854630
:1012C00018B020B5FEF7E6FFBDE820404FF000065D
:1012D0004FF000074FF000084FF0000B21F007011E
:1012E000AC46ACE8C009ACE8C009ACE8C009ACE861
:1012F000C0098D467047000010B500F005F8001DCC
:1013000010BD00BFA11D000000487047DC0900208F
:101310002DE9F0411F46044603260168072A01F41F
:10132000006004DB08B116A505E016A503E008B1CE
:1013300015A500E015A521F010002060A069C01ED1
:10134000A0610FB1401EA0612046FFF79AF94FB18E
:10135000D4E9012138469047206A401C2062C01C15
:10136000206206E0206AFAE7D4E9012115F8010BB2
:101370009047761EF8D22046FFF799F9BDE8F08134
:101380004E414E006E616E00494E4600696E660029
:101390002DE9F047814616468AB0334878440DC897
:1013A0008DE80D0030487844801C03AC0DC884E8FB
:1013B0000D0041F69B300844372190FBF1F290FB81
:1013C000F1F5A5F1800501FB12041B3C02D5644236
:1013D000012000E00020DFF890A080460027FA44BA
:1013E000AAF1BE0A0DE0E00709D03246684607EBD5
:1013F00047010AEB810100F008FB8DE8070064104B
:101400007F1C002CEFD1184F7F44AC3F18E0E80759
:1014100014D007EB04100DF1180A90E80E008AE8CA
:101420000E00C068F04201D198190890324606A912
:1014300003A800F0EAFA03AB83E807006D10641C10
:10144000002DE4D132466946B8F1000F03A802D05E
:1014500000F0C7FA01E000F0D8FAC9E90001C9F8C4
:1014600008200AB0BDE8F087102400000446AFF35E
:1014700000802046FEF7F9FE00487047BC090020B6
:101480004FF0013C50F8042B51F8043B9A4221D113
:10149000A2EB0C03934313EACC1317D150F8042B9F
:1014A00051F8043B9A4215D1A2EB0C03934313EA83
:1014B000CC130BD150F8042B51F8043B9A4209D1BC
:1014C000A2EB0C03934313EACC13DBD04FF00000E4
:1014D000704700BFD01A01BAB1FA81F101F01801CA
:1014E00022FA01F0CB40C1F12001DBB2C0B2C01A38
:1014F0002CFA01F3D11A914311EAC311E6D17047D6
:101500005FEA400C08BF91F0000F4FEA8C234FEACE
:10151000C12243EA51514FEA1C5018BF00F5F04078
:101520004FEA300018BF41F000415FEA6C5C00F008
:101530002980BCF1FF3F08BF40F080407047130C8A
:1015400006BF12044FF0100C4FF0000C130E04BF36
:1015500012020CF1080C130F04BF12010CF1040C61
:10156000930F04BF92000CF1020CD30F04BF520082
:101570000CF1010C11464FF00002A0F11F00A0EB8E
:101580000C00704711F0004F08BF704731F0004168
:101590003FF4D5AF0B0C06BF09044FF0100C4FF011
:1015A000000C0B0E04BF09020CF1080C0B0F04BF5A
:1015B00009010CF1040C8B0F04BF89000CF1020C23
:1015C000CB0F04BF49000CF1010CCCF12003A0EBC0
:1015D0000C0022FA03F302FA0CF241EA030100F1D3
:1015E0000100704720F07F4C80EA030023F07F4722
:1015F000ACEB070303F57C5300F0004003F1FF035D
:101600002DE980494FEA154B09B44FEA144325EA06
:101610000B4E24EA03480FF2042606EB1327490871
:101620003E785FEA320203FB0667C7F5000707FB57
:1016300006F64FEA54374FEAD64606F1020607FB94
:10164000066CCCF1005C4FEA1C472CEA074C07FB08
:1016500006F40CFB06F504EB15464FEA961634BF6C
:1016600000204FF000404FEAD13706FB07FC4FEA5D
:101670001C4C0CFB0BF7D21B03FB0CF761EB0701B7
:101680000CFB0EF7B0EB074072EB17420CFB08F7B0
:1016900034BFA2EB0742B2EB074261EB17414FEABE
:1016A0000C444FEA910706FB07FC4FEA1C4C0CFB6D
:1016B0000BF7B0EBC74072EB573203FB0CF734BFAC
:1016C000A2EBC742B2EBC74261EB57310CFB0EF7FE
:1016D000B0EBC70072EB57720CFB08F734BFA2EBFC
:1016E000C702B2EBC70261EB5771039F4FEA8161FA
:1016F00041EA921104EBCC044FEAD1374FEA8262FF
:1017000006FB07FC42EA90124FEA80604FEA1C4C4D
:101710000CFB0BF7D21B03FB0CF761EB07010CFB77
:101720000EF7B0EB074072EB17420CFB08F734BF23
:10173000A2EB0742B2EB074261EB17414FEA8C552F
:101740004FEA910704EB9C2406FB07FC4FEA1C4C74
:101750000CFB0BF7B0EBC74072EB573203FB0CF7F7
:1017600034BFA2EBC742B2EBC74261EB57310CFB6F
:101770000EF7B0EBC70072EB57720CFB08F734BFE3
:10178000A2EBC702B2EBC70261EB577115EB4C2518
:101790004FEA816141EA92114FEA82624FEAD13702
:1017A00042EA901206FB07FC44F100044FEA806015
:1017B0004FEA1C4C0CFB0BF7D21B03FB0CF761EB45
:1017C00007010CFB0EF7B0EB074072EB17420CFB66
:1017D00008F734BFA2EB0742B2EB074261EB1741B7
:1017E00015EB1C154FEA813141EA92414FEA8232F2
:1017F00042EA90424FEA80304FEA0C7644F100040E
:1018000048EA03434EEA0B484FF0000EB2EB080CD7
:1018100071EB030724BF624639464EEB0E0E4FF0C4
:10182000000B0018524149414BEB0B0BB2EB080C7B
:1018300071EB03077BF1000B24BF624639464EEB88
:101840000E0E4FF0000B0018524149414BEB0B0BB1
:10185000B2EB080C71EB03077BF1000B24BF62466F
:1018600039464EEB0E0E51EA020718BF46F001064C
:1018700016EB0E7655F1000254F1000103D5BDE8D8
:101880008901BDE80088BDE88901BDE80048B619B6
:10189000524141EB0101A3F10103704780807F7E3B
:1018A0007D7C7B7A797877767675747372717170D6
:1018B0006F6E6E6D6C6C6B6A6A6968686766666588
:1018C0006464636362616160605F5F5E5E5D5D5C16
:1018D0005C5B5B5A5A595958585757565655555587
:1018E0005454535352525251515050504F4F4F4EE7
:1018F0004E4D4D4D4C4C4C4B4B4B4A4A4A49494935
:101900004848484747474746464645454544444476
:10191000444343434342424242414141002B26D487
:10192000770021D01CB54FEA370703B44FF0100001
:101930004FF010014FF000000FBCBDE810400BF15C
:10194000010BBBF1010F08BF5FEA170722BF12F1BD
:10195000010211F101014FF0004143F1000300F0D9
:10196000004043EA00007047F9D35708DAE746EA37
:10197000064613F1400F4FEA16461FDD13F1200F04
:10198000DFBF16430A46002120335B42C8D0C3F1B3
:10199000200746EA064602FA07F74FEA164646EAE5
:1019A0000706C3F1200722FA03F201FA07F721FA2A
:1019B00003F14FF0000342EA0702B1E746EA0206EC
:1019C00046EA06464FEA164646EA0106BCBF46EA24
:1019D0000646360C4FF000034FF000024FF00001B6
:1019E0009EE72DE9C048934630B491E8380007C817
:1019F00031EA400C48BF34EA430C03D5FFF7F2FD4F
:101A0000FFF78CFFF0BCBDE800882DE9C048934685
:101A100030B491E8380007C810F0804F08BF13F0C9
:101A2000804F03D100F005F8FFF778FFF0BCBDE868
:101A3000008820F07F4780EA030023F07F4C07EB0B
:101A40000C03A3F57C5300F00040A3F1FE0392F0D9
:101A5000000F00F0B38095F0000F00F077802DE9C3
:101A600001494FEA11404FEA144621EA004800FBC1
:101A700006FC24EA064708FB06F607FB08F800FB0D
:101A800007F718EB06484CEB164C4FEA124B18EBD5
:101A900007484FEA15464CEB174022EA0B4E0BFB6A
:101AA00006FC25EA06470EFB06F607FB0EFE0BFBBF
:101AB00007F71EEB064E4CEB164C4FF000061EEBE4
:101AC000074E4CEB174B18EB0B0840F1000018EBDE
:101AD0000E0B58EB000840F100008F1A4FF0000188
:101AE0003CBFC943661B14BFB5EB040C00213CBFCF
:101AF000C943F61B4FEA17444EEA8E0E27EA044507
:101B00004FEA1C4704FB07622CEA074C05FB07F76A
:101B10000CFB05F604FB0CFC16EB074642EB1742E8
:101B200016EB0C4642EB1C421BEB060658EB02027E
:101B3000414146EA9E0601D5BDE80189B6195241E8
:101B400041EB0101A3F10103BDE801894FEA14450E
:101B50004FEA114724EA054621EA074C05FB07F442
:101B600006FB07F70CFB06F105FB0CFC11EB07412C
:101B700044EB17444FEA124711EB0C4144EB1C4471
:101B800022EA074C05FB07F206FB07F70CFB06F6FB
:101B900005FB0CFC16EB074642EB174216EB0C4616
:101BA00042EB1C456A1854F1000148BF7047B61952
:101BB000524141EB0101A3F10103704795F0000F81
:101BC00037D04FEA11424FEA144721EA024624EA8D
:101BD000074C02FB07F106FB07F70CFB06F402FBC0
:101BE0000CFC14EB074441EB17414FEA154714EB8B
:101BF0000C4441EB1C4125EA074C02FB07F506FBB0
:101C000007F70CFB06F602FB0CFC16EB074645EB50
:101C1000174516EB0C4645EB1C42121951F1000119
:101C200048BF7047B619524141EB0101A3F10103CE
:101C300070474FEA14454FEA114724EA054621EA66
:101C4000074C05FB07F106FB07F70CFB06F24FF00C
:101C5000000605FB0CFC12EB074241EB174112EBAF
:101C60000C4251EB1C4148BF7047921841EB0101F7
:101C7000A3F10103704700BFFEE770472DE9F04173
:101C8000024600250026002000230024002791F8AA
:101C900003C00CF00F0591F803C00CF0100CBCF160
:101CA000000F03D091F802C04CEA050591F800C07E
:101CB000BCF1000F31D0146800202BE04FF0010C74
:101CC0000CFA00F3B1F800C00CEA03069E4220D1E2
:101CD00083004FF00F0C0CFA03F7BC4305FA03FC2A
:101CE0004CEA040491F803C0BCF1280F06D14FF070
:101CF000010C0CFA00FCC2F814C00AE091F803C011
:101D0000BCF1480F05D14FF0010C0CFA00FCC2F8F1
:101D100010C0401C0828D1D31460B1F800C0BCF139
:101D2000FF0F34DD546800202EE000F1080C4FF066
:101D3000010808FA0CF3B1F800C00CEA03069E4251
:101D400021D183004FF00F0C0CFA03F7BC4305FAC6
:101D500003FC4CEA040491F803C0BCF1280F05D140
:101D600000F1080C08FA0CF8C2F8148091F803C0CE
:101D7000BCF1480F07D100F1080C4FF0010808FA38
:101D80000CF8C2F81080401C0828CED35460BDE87F
:101D9000F08141617047016170470AB1016100E063
:101DA0004161704700BFFEE708B501210C2000F03B
:101DB00081F94FF48070ADF8000010208DF8030019
:101DC00003208DF8020069460948FFF757FF4FF4DA
:101DD00080710748FFF7DDFF2020ADF8000069465D
:101DE0000448FFF74BFF20210248FFF7D2FF08BD50
:101DF00000080140000C014000BFFEE770470000F2
:101E000070B5002100230F22C47804B3154C246858
:101E100004F4E064C4F5E064210AC1F10403CA409B
:101E2000447804FA03F184781440214309010E4CEC
:101E30000678A155047804F01F050124AC4005780C
:101E40006D11AD0005F1E025C5F8004109E0047809
:101E500004F01F050124AC40044D0678761145F8C6
:101E6000264070BD0CED00E000E400E080E100E001
:101E700070B50546002413E08020204100EA0502E9
:101E800040210E48FFF789FF012220210B48FFF770
:101E900084FF002220210948FFF77FFF601CC4B2A5
:101EA000082CE9DB012220210448FFF776FF0022FD
:101EB00020210248FFF771FF70BD0000000C0140B7
:101EC00010B5012240210948FFF767FF01222021B8
:101ED0000648FFF762FF002240210448FFF75DFF3C
:101EE000002220210148FFF758FF10BD000C0140DF
:101EF00010B5002240210748FFF74FFF01222021A3
:101F00000448FFF74AFF012240210248FFF745FF3E
:101F100010BD0000000C014010B50246012000E099
:101F200050430B00A1F10101FAD110BD70B5054677
:101F30000C4645F0B00000F07BF8102141EA141087
:101F400000F076F804F00F0000F072F870BD0000A9
:101F50002DE9F04105460E461746721ED206110EB7
:101F60006A1E5206100EFFF7E1FF002409E0A7F1F8
:101F70002001134A02EB0111085D00F069F8601CB2
:101F8000C4B2082CF3DB721ED206110E6A1E0123A6
:101F900003EB4202D0B2FFF7C9FF00240BE0A7F128
:101FA0002001074A02EB011204F10801505C00F025
:101FB0004FF8601CC4B2082CF1DBBDE8F0810000D2
:101FC000D83000082DE9F04780460E4617461D46DA
:101FD000002415E0281B411E0A20FFF79DFFB7FBD8
:101FE000F0F00A21B0FBF1F201FB120000F1300920
:101FF0003019C1B24A464046FFF7AAFF601CC4B27E
:10200000AC42E7DBBDE8F0872DE9F04107460E461C
:102010001546002407E02A5D3019C1B23846FFF7A3
:1020200097FF601CC4B2285D0028F4D1BDE8F081A0
:1020300010B50446FFF744FF7820FFF719FF002092
:10204000FFF716FF2046FFF713FFFFF751FF10BD04
:1020500010B50446FFF734FF7820FFF709FF402052
:10206000FFF706FF2046FFF703FFFFF741FF10BD14
:102070007047000029B1064AD2690243044BDA6175
:1020800004E0034AD2698243014BDA6170470000E1
:102090000010024029B1064A12690243044B1A613A
:1020A00004E0034A12698243014B1A617047000041
:1020B0000010024029B1064A92690243044B9A611A
:1020C00004E0034A92698243014B9A617047000021
:1020D0000010024029B1064AD2680243044BDA607C
:1020E00004E0034AD2688243014BDA607047000083
:1020F0000010024030B500210022002400232D4DA5
:102100006D6805F00C0121B1042905D0082923D1FF
:1021100005E0294D056022E0274D05601FE0254DB3
:102120006D6805F47012234D6D6805F48034022546
:1021300005EB92421CB9214D554305600BE01D4D46
:102140006D6805F400351DB11C4D5543056002E076
:10215000194D5543056002E0174D056000BF00BFF3
:10216000144D6D6805F0F0010909154D6B5C0568AB
:10217000DD4045600F4D6D6805F4E061090A104DC2
:102180006B5C4568DD4085600A4D6D6805F4605103
:10219000C90A0B4D6B5C4568DD40C560054D6D6837
:1021A00005F44041890B074D6B5CC568B5FBF3F541
:1021B000056130BD0010024000127A0000093D00A8
:1021C0004400002054000020704710B500F002F8D1
:1021D00010BD00000CB5002001900090334800684D
:1021E00040F480303149086000BF3048006800F496
:1021F000003000900198401C0190009818B9019897
:10220000B0F5A06FF1D12948006800F4003010B19A
:102210000120009001E0002000900098012843D1A7
:102220002348006840F01000214908600846006813
:1022300020F0030008600846006840F002000860D3
:102240001A4840681949486008464068486008468E
:10225000406840F4806048600846406820F47C1084
:1022600048600846406840F4E81048600846006846
:1022700040F08070086000BF0C48006800F00070FB
:102280000028F9D00948406820F003000749486059
:102290000846406840F00200486000BF03484068BC
:1022A00000F00C000828F9D10CBD0000001002401D
:1022B00000200240042808D14FF0E021096941F0D4
:1022C00004014FF0E022116107E04FF0E0210969BD
:1022D00021F004014FF0E0221161704770470000C7
:1022E00010B51348006840F0010011490860084625
:1022F0004068104908400E494860084600680E4989
:1023000008400B4908600846006820F480200860F7
:102310000846406820F4FE0048604FF41F008860C3
:10232000FFF753FF4FF000600449086010BD000044
:10233000001002400000FFF8FFFFF6FE08ED00E08D
:1023400010B586B001211E4800F0EBF8002834D00B
:102350001C48006808B9012000E000201949086005
:1023600019480068642190FBF1F201FB120000F1B2
:102370003C04164802781648037816484068154908
:102380000968CDE90432CDE902100F484068CDE973
:10239000004011484368114902681148FDF7ACFF3D
:1023A0000F4910A0FDF79CFF642211A10C4800F01A
:1023B00033FE0121024800F0A5F806B010BD000070
:1023C00000040040948121421400002011000020EC
:1023D00010000020080000201C0000201038000819
:1023E00088090020627566323A25730D0A000000E4
:1023F0004F4B00007FB505460C4601210220FFF738
:1024000039FEADF80850ADF804400020ADF80A00E0
:10241000ADF8060001A90E4800F0A0F8012211460F
:102420000B4800F08FF81D208DF8000000208DF87B
:10243000010003208DF8020001208DF8030068469A
:10244000FFF7DEFC0121024800F05FF87FBD0000CD
:102450000004004010B50121084800F062F860B1A6
:102460000748008840F400400549088001210348DE
:1024700000F048F8002000F031F810BD00080040DE
:10248000420000207FB505460C4601210420FFF7DD
:10249000F1FDADF80450ADF800400020ADF80600A5
:1024A000ADF8020069460C4800F058F801221146C8
:1024B000094800F047F81E208DF80C0001208DF827
:1024C0000D0002208DF80E0001208DF80F0003A8EA
:1024D000FFF796FC7FBD00000008004010B50446E1
:1024E00044B10021064800F036F80121044800F00C
:1024F0000CF803E00021024800F007F810BD0000CE
:1025000000080040CA430282704721B1028842F0AD
:102510000102028004E002884FF6FE731A40028036
:10252000704730B50246002000230024158A05EAD2
:102530000103958905EA010413B10CB1012000E003
:10254000002030BD1AB183890B43838102E0838967
:102550008B4383817047818470470000002202888A
:102560001D4B98420ED01D4B98420BD0B0F1804FBE
:1025700008D01B4B984205D01A4B984202D01A4BF8
:10258000984204D14FF68F731A404B881A43174B69
:10259000984207D0164B984204D04FF6FF431A409A
:1025A000CB881A4302808B8883850B8803850A4B6E
:1025B00098420BD0094B984208D00E4B984205D058
:1025C0000D4B984202D00D4B984201D10B7A0386F5
:1025D0000123838270470000002C01400034014039
:1025E0000004004000080040000C004000100040C3
:1025F00000140040004001400044014000480140F8
:1026000010B540F225511D4800F02AF910B31B48BF
:1026100000F0E2F9C4B21A48008800F40040C8B9DA
:102620001748008800F4804060B10A2C03D00020D5
:102630001349088020E01248008840F40040104907
:10264000088019E00D2C06D10D48008840F4804028
:102650000B49088010E00A480088C0F30D000949C2
:102660000C5407480088401C05490880084600882B
:10267000C72801DD0020088010BD0000003801409F
:1026800040000020BC00002010B540F22551134846
:1026900000F0E6F808B3114800F09EF9C4B2104803
:1026A0000088B0F5806F12DA00210E48FFF753FF63
:1026B0000B48008810B90120FFF710FF0848018877
:1026C0000088401C064A10800748445405E004482E
:1026D000008840F400400249088010BD00440040DA
:1026E00042000020000800408805002010B586B098
:1026F000044601210420FFF7DDFC01214804FFF717
:10270000B9FC274800F05EF80420ADF81000032063
:102710008DF8120018208DF8130004A92148FFF746
:10272000ADFA0820ADF8100004208DF8130004A9BC
:102730001C48FFF7A3FA00940020ADF80400ADF8A0
:102740000600ADF80800ADF80C000C20ADF80A004A
:102750006946134800F0D4F80121114800F026F82A
:10276000012240F225510E4800F0A4F826208DF8F1
:10277000140000208DF815008DF8160001208DF84A
:10278000170005A8FFF73CFB41F61F416320FFF748
:1027900079FE002004490880FFF7A0FE06B010BDB6
:1027A00000440040000801404200002021B182891D
:1027B00042F40052828104E082894DF6FF731A4090
:1027C0008281704710B504462048844209D1012116
:1027D0008803FFF77FFC00214FF48040FFF77AFC6D
:1027E00032E01B48844209D101214804FFF752FC22
:1027F00000214FF40030FFF74DFC25E015488442DE
:1028000009D101218804FFF745FC00214FF4802005
:10281000FFF740FC18E01048844209D10121C804A8
:10282000FFF738FC00214FF40020FFF733FC0BE0EA
:102830000A48844208D101210805FFF72BFC00213A
:102840004FF48010FFF726FC10BD00000038014057
:102850000044004000480040004C00400050004050
:1028600070B50246002400230025002040F66A16B9
:10287000B14200D100BFC1F3421501F01F03012690
:1028800006FA03F3012D02D19689334006E0022DAA
:1028900002D1168A334001E0968A33400C12012699
:1028A00006FA04F41688344013B10CB1012000E09C
:1028B000002070BDF0B5034600240026002500204E
:1028C00040F66A17B94200D100BF1846C1F342145E
:1028D00001F01F06012707FA06F5012C01D10C3083
:1028E00004E0022C01D1103000E014301AB1076866
:1028F0002F43076002E00768AF430760F0BD0000A8
:102900002DE9F04786B005460E460024A24600BFDA
:10291000A1460027B08900B100BF2F462C8A4CF693
:10292000FF700440F08804432C82AC894EF6F3100B
:102930000440B08831890843718908430443AC815D
:10294000AC8A4FF6FF400440B0890443AC8201A832
:10295000FFF7D0FB1F48874202D1DDF810A001E04D
:10296000DDF80CA0A88900F4004040B10AEBCA00D1
:1029700000EB0A1031684900B0FBF1F807E00AEB00
:10298000CA0000EB0A1031688900B0FBF1F864203E
:10299000B8FBF0F004012009642101FB1089A8892B
:1029A00000F4004040B1322000EBC900B0FBF1F070
:1029B00000F00700044308E0322000EB0910642116
:1029C000B0FBF1F000F00F0004432C8106B0BDE82D
:1029D000F08700000038014001468888C0F30800F5
:1029E000704700BFFEE7490050EAC12018BF04202D
:1029F0004A0D18BF40F0010040F2FF72B2EB515F88
:102A000008BF40F00200012808BF05207047303899
:102A10000A2801D2012070470020704700BF70478C
:102A200010B56FF00400FFF745FC0A4800680A493A
:102A3000B0FBF1F0094908700846007800EB40014E
:102A4000C1EBC0104FF6FF7101EAC00004490880D5
:102A500010BD00002400002000127A003800002081
:102A60003A0000200146114A12884A434FF0E02301
:102A70005A6100229A611A46126942F001021A61F3
:102A800000BF4FF0E022106900F001021AB100F41B
:102A90008032002AF5D04FF0E022126922F00102C4
:102AA0004FF0E0231A6100229A6170473A0000203B
:102AB00000BF054A128802F04002002AF9D0C2B2D3
:102AC000014B1B1D1A8070470038014010B505E00E
:102AD00001202449086024A0FDF702FC322226A12F
:102AE00026A000F099FA0028F2D11E49086002E001
:102AF00023A0FDF7F5FB32221FA126A000F08CFADF
:102B00000028F5D102E026A0FDF7EAFB4FF4FA72A7
:102B100019A127A000F080FA0028F4D102E020A03B
:102B2000FDF7DEFB4FF4FA7213A129A000F074FA4E
:102B30000028F4D102E034A0FDF7D2FB4FF4FA7282
:102B40000DA137A000F068FA0028F4D102E03FA000
:102B5000FDF7C6FB322208A140A000F05DFA002874
:102B6000F5D110BD948121424154CFECD3A6CAA720
:102B7000B0DC0D0A000000004F4B00004154000083
:102B8000535441C4A3CABDC9E8D6C3CAA7B0DC0D1B
:102B90000A00000041542B43574D4F44453D31003E
:102BA000C1ACBDD357494649CAA7B0DC0D0A0000E5
:102BB00041542B43574A41503D2248592E2E2E2234
:102BC0002C2268796879686868313233343522009C
:102BD00041542B4D515454555345524346473D3073
:102BE0002C312C224D5154544944222C2264626CC5
:102BF00064687764222C2264626C64687764222C97
:102C0000302C302C22220000C1ACBDD34D51545485
:102C1000B7FECEF1C6F7CAA7B0DC0D0A000000006F
:102C200041542B4D515454434F4E4E3D302C226253
:102C3000726F6B65722D636E2E656D71782E696F84
:102C4000222C313838332C3100000000B6A9D4C40E
:102C5000D6F7CCE2CAA7B0DC0D0A000041542B4DD8
:102C60005154545355423D302C2264626C645F6C65
:102C70006564222C30000000FFF7D2FEFFF794F8C5
:102C800000F096F94FF4165000F042F94FF4E1309D
:102C9000FFF72CFD00F090F8012034490860FFF7A1
:102CA00015FF48F69F4142F20F70FFF7A3FB5CE06F
:102CB0002F48008800F4004050B32E492E48FDF7FD
:102CC00099FC2E480068FDF7B9FC05462A462B48BA
:102CD00001682948FDF762FC28B9012023490860F2
:102CE00027A0FDF7FDFA28480068FDF7A7FC054678
:102CF0002A46254801682048FDF750FC28B90020E5
:102D00001A49086021A0FDF7EBFA00201849088055
:102D10002048008800F4004030B31FA0FDF7E0FA1F
:102D20001C4804781E4800781E4908601C484078FA
:102D300048601B4880781C4908701948C0781B49B6
:102D40000870174800791A490860154840794860AA
:102D500013488079174908601148C07948600020FD
:102D60000C49088000F038F800BFA1E7A00121421B
:102D700042000020880500205800002000000020AC
:102D8000BFAAB5C60D0A000004000020B9D8B5C618
:102D90000D0A0000400000203131310D0A00000012
:102DA000BC000020080000201000002011000020BE
:102DB000140000201C00002010B510210548FEF76B
:102DC000E8FF4FF47A70FFF74DFE10210148FEF73F
:102DD000E2FF10BD0008014010B52C480223072176
:102DE00002680120FFF7EEF82E2209210120FFF7EB
:102DF000AFF8264802230A2142680120FFF7E2F8D3
:102E00002348006800F11A02022307211846FFF741
:102E1000D9F82E2209210220FFF79AF81C48022334
:102E20000A2142681846FFF7CDF81AA201210320B3
:102E3000FFF7EAF819480223072102680320FFF789
:102E4000C1F817A208210320FFF7DEF81348012379
:102E5000072142680320FFF7B5F812A201210420E0
:102E6000FFF7D2F803231148027807210420FFF767
:102E7000A9F826220B210420FFF76AF803230C4847
:102E800002780D210420FFF79DF810BD14000020EA
:102E90001C000020746977656E3A0000080000206D
:102EA0002E000000786C2678793A0000100000208F
:102EB000110000200FB438B505A800901248009A00
:102EC0000499FDF7FBF9002000900F48FDF7B6FBD1
:102ED000054600BF0D48008800F040000028F9D0EA
:102EE00000240CE00848005D0849091D088000BF67
:102EF0000648008800F040000028F9D0641CAC426D
:102F0000F0D338BC5DF814FB880100200044004079
:102F100010B586B00446012144F20400FFF7CAF858
:102F20004FF40070ADF8140003208DF8160018203F
:102F30008DF8170005A91C48FEF7A0FE4FF480602D
:102F4000ADF8140004208DF8170005A91648FEF707
:102F500095FE25208DF8000003208DF801008DF8E6
:102F6000020001208DF803006846FEF749FF019436
:102F70000020ADF80800ADF80A00ADF80C00ADF87F
:102F800010000C20ADF80E0001A90848FFF7B8FCAE
:102F9000012240F225510548FFF78CFC012103482E
:102FA000FFF704FC06B010BD0008014000380140E6
:102FB00008B501210420FFF77DF81020ADF80000CE
:102FC00003208DF8020010208DF8030069460448A4
:102FD000FEF754FE10210248FEF7DDFE08BD00009A
:102FE0000008014070B5044600250948008800F437
:102FF000004058B1002006490988C1F30E01054A76
:10300000505421461046FDF7B7FA0546284670BDD4
:1030100042000020880500202DE9F04105460E46BB
:1030200014460027002011490880294610A0FFF708
:1030300041FFBCB10FE00A20FFF714FD0B480088E8
:1030400000F4004038B13046FFF7CCFF00B106E095
:10305000002006490880601E80B20400EBD100BF4A
:1030600004B901273846BDE8F08100004200002085
:1030700025730D0A0000000010B500290AD0087859
:10308000002807D005487844FEF7FAF9002801D057
:10309000002010BD0248784410BD0000FE0700006B
:1030A000F607000010B500290AD00878002807D0DC
:1030B00005487844FEF7E4F9002801D0002010BD4F
:1030C0000248784410BD0000EE070000E60700004B
:1030D000FDF7FEBDFDF732BF00000000000000005C
:1030E0000000000000000000000000F800000000E8
:1030F000000000333000000000100C06100C060029
:10310000000000000000000040C07840C07840008F
:10311000043F04043F040400007088FC08300000F1
:10312000001820FF211E0000F008F000E018000049
:1031300000211C031E211E0000F008887000000002
:103140001E2123241927211010160E000000000054
:103150000000000000000000000000E01804020071
:10316000000000071820400000020418E0000000E2
:103170000040201807000000404080F080404000E0
:103180000202010F01020200000000F00000000036
:103190000101011F0101010000000000000000000A
:1031A00080B070000000000000000000000000007F
:1031B0000001010101010101000000000000000008
:1031C00000303000000000000000000080601804A3
:1031D000006018060100000000E010080810E00080
:1031E000000F102020100F00001010F80000000049
:1031F0000020203F20200000007008080888700090
:10320000003028242221300000300888884830000F
:103210000018202020110E000000C02010F800002F
:1032200000070424243F240000F8088888080800C8
:103230000019212020110E0000E0108888180000DD
:10324000000F112020110E0000380808C8380800AF
:103250000000003F0000000000708808088870002F
:10326000001C222121221C0000E010080810E000B0
:103270000000312222110F00000000C0C000000039
:10328000000000303000000000000080000000005E
:103290000000806000000000000080402010080056
:1032A000000102040810200040404040404040001F
:1032B00004040404040404000008102040800000FA
:1032C0000020100804020100007048080808F000FF
:1032D0000000003036010000C030C828E810E000CF
:1032E0000718272423140B000000C038E00000005A
:1032F000203C23020227382008F8888888700000C4
:10330000203F202020110E00C03008080808380097
:10331000071820202010080008F808080810E0000E
:10332000203F202020100F0008F88888E8081000AF
:10333000203F20202320180008F88888E808100083
:10334000203F200003000000C030080808380000BB
:1033500007182020221E020008F808000008F808BC
:10336000203F210101213F20000808F80808000043
:103370000020203F2020000000000808F808080076
:10338000C08080807F00000008F888C028180800EE
:10339000203F20012638200008F808000000000027
:1033A000203F20202020300008F8F800F8F808001E
:1033B000203F003F003F200008F830C00008F80818
:1033C000203F200007183F00E01008080810E00028
:1033D0000F10202020100F0008F808080808F0003F
:1033E000203F210101010000E01008080810E00062
:1033F0000F18242438504F0008F8888888887000F7
:10340000203F2000030C3020007088080808380096
:103410000038202121221C00180808F8080818008C
:103420000000203F2000000008F808000008F8080D
:10343000001F202020201F000878880000C83808BE
:10344000000007380E010000F80800F80008F80036
:10345000033C0700073C03000818688080681808D0
:1034600020302C03032C30200838C800C83808004E
:103470000000203F2000000010080808C83808009D
:103480002038262120201800000000FE0202020041
:103490000000007F40404000000C30C000000000F1
:1034A000000000010638C00000020202FE00000019
:1034B000004040407F0000000000040202020400BF
:1034C00000000000000000000000000000000000FC
:1034D00080808080808080800002020400000000E4
:1034E00000000000000000000000808080800000DC
:1034F0000019242222223F2008F8008080000000CA
:10350000003F112020110E0000000080808000008C
:10351000000E112020201100000000808088F8009B
:10352000000E112020103F200000808080800000CD
:10353000001F222222221300008080F08888881831
:103540000020203F2020000000008080808080003C
:10355000006B94949493600008F8008080800000D1
:10356000203F210000203F200080989800000000AC
:103570000020203F202000000000008098980000DC
:1035800000C08080807F000008F8000080808000FC
:10359000203F24022D302000000808F80000000021
:1035A0000020203F202000008080808080808000DC
:1035B000203F20003F20003F80800080808000006E
:1035C000203F210000203F200000808080800000FC
:1035D000001F202020201F0080800080800000002D
:1035E00080FFA12020110E0000000080808080005C
:1035F000000E112020A0FF8080808000808080004D
:1036000020203F2120000100000080808080800079
:103610000033242424241900008080E080800000EE
:103620000000001F2020000080800000008080003B
:10363000001F202020103F2080808000008080809C
:1036400000010E300806010080800080008080802C
:103650000F300C030C300F00008080008080800051
:103660000020312E0E31200080808000008080807C
:1036700080818E701806010000808080808080002C
:103680000021302C2221300000000000807C02024A
:1036900000000000003F404000000000FF0000006C
:1036A00000000000FF0000000002027C800000001B
:1036B0000040403F00000000000601010202040437
:1036C00000000000000000000400000800000000EE
:1036D00000000002000100001000000000000000D7
:1036E000000000003031323334353637383941424A
:1036F0004344454640305800303132333435363754
:103700003839616263646566403078003031323345
:1037100034353637383961626364656678700030F5
:1037200031323334353637383941424344454658CF
:103730005000000002400000000000A00000000057
:1037400005400000000000C8000000000C40000020
:103750000000409C00000000194000000020BCBE9A
:103760000000000034400000BFC91B8E00000004B0
:10377000B5400000504BCFD06607E2CF01000000FB
:103780006C4100003E8251AADFEEA7340100000028
:10379000D9420000DCB5A0E23A301F97FFFFFFFFDF
:1037A000B4450000FD25A0C8E9A3C14FFFFFFFFFFE
:1037B000FF3F00000000008000000000FF3F00000D
:1037C00000000080000000002B4D5154545355421E
:1037D000524543563A302C2264626C645F6C6564D7
:1037E000222C362C4C45444F464600002B4D51545C
:1037F00054535542524543563A302C2264626C640D
:103800005F6C6564222C352C4C45444F4E00000003
:1038100041542B4D5154545055423D302C2264623A
:103820006C645F64617461222C227B74656D703AF4
:1038300025642E25645C2C68756D693A25642E25F7
:10384000645C2C746977656E3A25642E25645C2C63
:10385000786C3A25645C2C78793A25647D222C308A
:103860002C300000B0390008000000205800000093
:103870006C010008083A000858000020C80F00003A
:10388000880100081C00000043000000F8FFFFFF53
:103890000C0000000E0000000F0000002E000000D1
:1038A0001001000043000000F8FFFFFF004040400F
:1038B0004040404040404141414141404040404003
:1038C00040404040404040404040404040050202AF
:1038D000020202020202020202020202022020206E
:1038E00020202020202020020202020202029090CA
:1038F00090909090101010101010101010101010C8
:10390000101010101010101002020202020288881B
:103910008888888808080808080808080808080827
:10392000080808080808080802020202400000000F
:103930000000000000000000000000000000000087
:103940000000000000000000000000000000000077
:103950000000000000000000000000000000000067
:103960000000000000000000000000000000000057
:103970000000000000000000000000000000000047
:103980000000000000000000000000000000000037
:103990000000000000000000000000000000000027
:1039A0000000000000000000000000000000000017
:1039B000EC370008C83700080000000000000000D5
:1039C00000000000000000000000000000000000F7
:1039D0000000000000A24A040000000000000000F7
:1039E00001020304060708090000000000000000AF
:1039F00000000000000000000102030401020304B3
:083A000006070809020406088C
:0400000508000131BD
:00000001FF
