:020000040800F2
:1000000060070020CD0100087104000835040008D5
:100010006D04000815030008AB090008000000008B
:10002000000000000000000000000000F1050008D2
:100030001903000800000000F90400080507000883
:10004000E7010008E7010008E7010008E7010008F0
:10005000E7010008E7010008E7010008E7010008E0
:10006000E7010008E7010008E7010008E7010008D0
:10007000E7010008E7010008E7010008E7010008C0
:10008000E7010008E7010008E7010008E7010008B0
:10009000E7010008E7010008E7010008E7010008A0
:1000A000E7010008E7010008E7010008E701000890
:1000B000E7010008E7010008E7010008E701000880
:1000C000E7010008E7010008E7010008E701000870
:1000D000E701000869070008E7010008E7010008D8
:1000E000E7010008E7010008E7010008E701000850
:1000F000E7010008E7010008E7010008E701000840
:10010000E7010008E7010008E7010008E70100082F
:10011000E7010008E7010008E7010008E70100081F
:10012000E7010008E7010008E7010008E70100080F
:1001300000F002F800F03AF80AA090E8000C8244BF
:100140008344AAF10107DA4501D100F02FF8AFF29C
:10015000090EBAE80F0013F0010F18BFFB1A43F0A5
:1001600001031847E80A0000080B0000103A24BFFA
:1001700078C878C1FAD8520724BF30C830C144BF0C
:1001800004680C607047000000230024002500264E
:10019000103A28BF78C1FBD8520728BF30C148BFEA
:1001A0000B6070471FB51FBD10B510BD00F06EF895
:1001B0001146FFF7F7FF00F053FC00F0A0F803B47E
:1001C000FFF7F2FF03BC00F0F2FB00000948804794
:1001D00009480047FEE7FEE7FEE7FEE7FEE7FEE729
:1001E000FEE7FEE7FEE7FEE704480549054A064B41
:1001F0007047000009070008310100086001002075
:1002000060070020600300206003002070470000AA
:100210000FB4044910B503AA029800F009F810BC05
:100220005DF814FB2C000020704770477047704742
:10023000074B70B50D467B4400F011F80446284684
:1002400000F020F810B14FF0FF3070BD204670BDB7
:100250000B08000001694A1C02610878704700B56C
:100260008FB0CDE901310021059105497944CDE9EF
:1002700003101146684600F02EF80FB000BD0000D4
:10028000E5FFFFFF007B00F080007047754600F03F
:100290003DF8AE4605006946534620F00700854606
:1002A00018B020B5FFF7A0FFBDE820404FF00006D2
:1002B0004FF000074FF000084FF0000B21F007014E
:1002C000AC46ACE8C009ACE8C009ACE8C009ACE891
:1002D000C0098D4670472DE9F04106460024D6E955
:1002E0000170F5688046304603E04146B847641C1B
:1002F0003046A8470028F8D12046BDE8F0810446E2
:10030000AFF300802046FFF75AFF00000048704717
:10031000FC00002000BFFEE770472DE9F0410246D7
:1003200000250026002000230024002791F803C0A8
:100330000CF00F0591F803C00CF0100CBCF1000F8D
:1003400003D091F802C04CEA050591F800C0BCF159
:10035000000F31D0146800202BE04FF0010C0CFA94
:1003600000F3B1F800C00CEA03069E4220D18300DE
:100370004FF00F0C0CFA03F7BC4305FA03FC4CEAF0
:10038000040491F803C0BCF1280F06D14FF0010C12
:100390000CFA00FCC2F814C00AE091F803C0BCF1EA
:1003A000480F05D14FF0010C0CFA00FCC2F810C048
:1003B000401C0828D1D31460B1F800C0BCF1FF0F75
:1003C00034DD546800202EE000F1080C4FF00108E5
:1003D00008FA0CF3B1F800C00CEA03069E4221D1E2
:1003E00083004FF00F0C0CFA03F7BC4305FA03FC33
:1003F0004CEA040491F803C0BCF1280F05D100F1C8
:10040000080C08FA0CF8C2F8148091F803C0BCF18B
:10041000480F07D100F1080C4FF0010808FA0CF85A
:10042000C2F81080401C0828CED35460BDE8F0818B
:100430004161704700BFFEE708B50121082000F0C8
:100440005DF810208DF803007020ADF80000032047
:100450008DF8020069460448FFF75FFF70210248EB
:10046000FFF7E6FF08BD0000000C014000BFFEE7FB
:100470007047000070B5002100230F22C47804B338
:10048000154C246804F4E064C4F5E064210AC1F169
:100490000403CA40447804FA03F1847814402143E9
:1004A00009010E4C0678A155047804F01F050124BB
:1004B000AC4005786D11AD0005F1E025C5F80041AF
:1004C00009E0047804F01F050124AC40044D0678CF
:1004D000761145F8264070BD0CED00E000E400E028
:1004E00080E100E002490143024A116070470000C8
:1004F0000000FA050CED00E07047000029B1064A43
:1005000092690243044B9A6104E0034A9269824370
:10051000014B9A61704700000010024030B5002185
:100520000022002400232D4D6D6805F00C0121B13F
:10053000042905D0082923D105E0294D056022E0D2
:10054000274D05601FE0254D6D6805F47012234DA1
:100550006D6805F48034022505EB92421CB9214DEB
:10056000554305600BE01D4D6D6805F400351DB168
:100570001C4D5543056002E0194D5543056002E0EE
:10058000174D056000BF00BF144D6D6805F0F00108
:100590000909154D6B5C0568DD4045600F4D6D68C0
:1005A00005F4E061090A104D6B5C4568DD4085602B
:1005B0000A4D6D6805F46051C90A0B4D6B5C4568C6
:1005C000DD40C560054D6D6805F44041890B074D60
:1005D0006B5CC568B5FBF3F5056130BD00100240EA
:1005E00000127A0000093D001800002028000020B9
:1005F000704710B500F002F810BD00000CB50020E7
:10060000019000903348006840F480303149086020
:1006100000BF3048006800F4003000900198401C92
:100620000190009818B90198B0F5A06FF1D1294850
:10063000006800F4003010B10120009001E00020BB
:1006400000900098012843D12348006840F0100032
:10065000214908600846006820F003000860084649
:10066000006840F0020008601A4840681949486074
:100670000846406848600846406840F4806048602A
:100680000846406820F47C1048600846406840F402
:10069000E81048600846006840F08070086000BFBD
:1006A0000C48006800F000700028F9D00948406844
:1006B00020F00300074948600846406840F0020007
:1006C000486000BF0348406800F00C000828F9D1DA
:1006D0000CBD00000010024000200240042808D198
:1006E0004FF0E021096941F004014FF0E02211616F
:1006F00007E04FF0E021096921F004014FF0E0220A
:10070000116170477047000010B51348006840F051
:1007100001001149086008464068104908400E4928
:100720004860084600680E4908400B4908600846C2
:10073000006820F4802008600846406820F4FE002D
:1007400048604FF41F008860FFF753FF4FF00060D0
:100750000449086010BD0000001002400000FFF8CE
:10076000FFFFF6FE08ED00E010B540F225511D48F0
:1007700000F057F810B31B4800F00EF9C4B21A4845
:10078000008800F40040C8B91748008800F4804091
:1007900060B10A2C06D11448008840F40040124988
:1007A00008801DE000201049088019E00D2C06D1BA
:1007B0000D48008840F480400B49088010E00A484A
:1007C0000088C0F30D0009490C5407480088401CFC
:1007D0000549088008460088C72801DD00200880F8
:1007E00010BD00000038014030000020340000201F
:1007F00021B1828942F40052828104E082894DF65F
:10080000FF731A408281704702460020B1F5007FD5
:1008100000D100BF13880B400BB1012000E0002085
:10082000704770B50246002400230025002040F6E2
:100830006A16B14200D100BFC1F3421501F01F0397
:10084000012606FA03F3012D02D19689334006E012
:10085000022D02D1168A334001E0968A33400C12F1
:10086000012606FA04F41688344013B10CB10120B5
:1008700000E0002070BDF0B50346002400260025EE
:10088000002040F66A17B94200D100BF1846C1F3F4
:10089000421401F01F06012707FA06F5012C01D1C9
:1008A0000C3004E0022C01D1103000E014301AB1F9
:1008B00007682F43076002E00768AF430760F0BD99
:1008C0002DE9F04786B005460E460024A24600BF3B
:1008D000A1460027B08900B100BF2F462C8A4CF6F4
:1008E000FF700440F08804432C82AC894EF6F3106C
:1008F0000440B08831890843718908430443AC81BE
:10090000AC8A4FF6FF400440B0890443AC8201A892
:10091000FFF704FE1F48874202D1DDF810A001E076
:10092000DDF80CA0A88900F4004040B10AEBCA0031
:1009300000EB0A1031684900B0FBF1F807E00AEB60
:10094000CA0000EB0A1031688900B0FBF1F864209E
:10095000B8FBF0F004012009642101FB1089A8898B
:1009600000F4004040B1322000EBC900B0FBF1F0D0
:1009700000F00700044308E0322000EB0910642176
:10098000B0FBF1F000F00F0004432C8106B0BDE88D
:10099000F08700000038014001468888C0F3080055
:1009A0007047C1F308028280704700BFFEE700BFB6
:1009B0007047000010B56FF00400FFF78FFE0A4883
:1009C00000680A49B0FBF1F0094908700846007850
:1009D00000EB4001C1EBC0104FF6FF7101EAC0000F
:1009E0000449088010BD00000000002000127A00B9
:1009F00014000020160000200146114A12884A43C4
:100A00004FF0E0235A6100229A611A46126942F0BF
:100A100001021A6100BF4FF0E022106900F00102EC
:100A20001AB100F48032002AF5D04FF0E0221269AA
:100A300022F001024FF0E0231A6100229A61704710
:100A40001600002000BF054A128802F04002002A6A
:100A5000F9D0C2B2014B1B1D1A807047003801400B
:100A6000FFF7A8FF4FF4A060FFF73CFD4FF4E13023
:100A700000F096F8FFF7E0FC4EE02848008800F40C
:100A80000040F8B125480088C0F30D0624A0FFF708
:100A9000BFFB00250DE02748415D2748FFF781FF98
:100AA00000BF40212448FFF7AFFE0128F9D1681CA0
:100AB00085B2B542EFDB21A0FFF7AAFB0020174962
:100AC000088029E00024641C41F2883094FBF0F196
:100AD00000FB114028B91CA0FFF79AFB22A0FFF7EA
:100AE00097FBC82094FBF0F100FB114010B924A043
:100AF000FFF78EFB1E2094FBF0F100FB114038B98C
:100B00002648006808B9012000E000202349086059
:100B10000A20FFF771FF00BFAFE7000030000020A0
:100B2000C4FAB7A2CBCDB5C4CFFBCFA2CEAAA3BA8D
:100B30000000000034000020003801402F722F6EAA
:100B40002F722F6E000000000D0AD5BDBDA25354B8
:100B50004D3332BFAAB7A2B0E520B4AEBFDACAB5F2
:100B6000D1E90D0A00000000D5FDB5E3D4ADD7D31F
:100B700040414C49454E54454B0D0A0D0A000000BA
:100B8000C7EBCAE4C8EBCAFDBEDD2CD2D4BBD8B3D8
:100B9000B5BCFCBDE1CAF80A00000000908121420A
:100BA00010B586B0044601210520FFF7A7FC0121FE
:100BB0008803FFF7A3FC18208DF817004FF400708E
:100BC000ADF8140001208DF8160005A91D48FFF7A7
:100BD000A4FB04208DF817000002ADF814000120DA
:100BE0008DF8160005A91748FFF797FB0194002020
:100BF000ADF810000C20ADF80E000020ADF80C0090
:100C0000ADF80A00ADF8080001A90F48FFF758FE3B
:100C100025208DF8000001208DF803008DF80100DB
:100C20008DF802006846FFF725FC01210648FFF712
:100C3000DFFD012240F225510348FFF71CFE06B0FC
:100C400010BD000000080140003801406C0C000895
:100C500000000020340000006C010008A00C000817
:100C6000340000202C0700008801000800A24A047C
:100C7000000000000000000001020304060708094C
:100C80000000000000000000010203040102030450
:100C90000607080902040608000000000000000022
:04000005080001CD21
:00000001FF
