:020000040800F2
:10000000103A0020790200086D24000845210008FC
:1000100069240008D71B0008172F00080000000003
:10002000000000000000000000000000312900086E
:10003000092000080000000019280008452A0008CF
:10004000930200089302000893020008930200083C
:10005000930200089302000893020008930200082C
:10006000930200089302000893020008930200081C
:10007000930200089302000893020008930200080C
:1000800093020008930200089302000893020008FC
:1000900093020008930200089302000893020008EC
:1000A00093020008930200089302000893020008DC
:1000B00093020008A92A00084D2B000893020008AB
:1000C00093020008930200089302000893020008BC
:1000D00093020008E92B0008712C0008D52C0008B9
:1000E000930200089302000893020008930200089C
:1000F000930200089302000893020008930200088C
:10010000930200089302000893020008930200087B
:10011000930200089302000893020008930200086B
:10012000930200089302000893020008930200085B
:1001300000F002F800F090F80AA090E8000C824469
:100140008344AAF10107DA4501D100F085F8AFF246
:10015000090EBAE80F0013F0010F18BFFB1A43F0A5
:1001600001031847B44E0000D44E0000103A24BFDB
:1001700078C878C1FAD8520724BF30C830C144BF0C
:1001800004680C607047000000230024002500264E
:10019000103A28BF78C1FBD8520728BF30C148BFEA
:1001A0000B6070476E2900F0AE82702900F0198450
:1001B000662904F0EF82652904F0EC82672904F0D7
:1001C000E982612904F0E88203681B0A28BF41F034
:1001D0008001692900F0D080642900F0CD80752964
:1001E00000F0CA806F2900F0A783782900F0E5832A
:1001F000E92900F04183E42900F03E83F52900F06D
:100200003B83EF2900F0A483F82900F0E48303681E
:10021000DB0928BF41F08001632900F0B082732917
:1002200000F0B582E32900F0C187F32900F0C6870A
:10023000002070471FB501F017F8040000200021CE
:1002400003F062FF401C60600020002103F046FFC5
:10025000E0601FBD10B510BD00F0D8FF1146FFF7DC
:10026000E9FF03F0B9F801F0B1F803B4FFF7F2FFCA
:1002700003BC02F06DFE00000948804709480047B2
:10028000FEE7FEE7FEE7FEE7FEE7FEE7FEE7FEE746
:10029000FEE7FEE704480549054A064B70470000A3
:1002A000492A00083101000810340020103A0020CB
:1002B0001036002010360020704700001CB50C4698
:1002C000064B7B4469460090204600F036FA04460F
:1002D0000020694600F044FA20461CBD9B04000043
:1002E0000FB4044910B503AA029800F055FA10BCE7
:1002F0005DF814FB780000200FB41CB5084B06AA6B
:100300007B4469460090059800F017FA04460020E7
:10031000694600F025FA20461CBC5DF814FB00007D
:100320005D04000070B50C460546012A05D028780A
:10033000800600D5EA69002302E0012305E05B1C8A
:10034000934202D2E05C0028F9D1A869E618C01AED
:10035000A861286A18442862284600F042F904E09F
:10036000D5E9012114F8010B9047B442F8D328468F
:1003700000F04DF970BD00002DE9F0410646002463
:1003800010687529314616A510D000F051F90028E3
:1003900002DA404213A507E031688A0701D512A5A9
:1003A00002E0490704D511A5012401E000F049F954
:1003B00000210A2206F1240709E0B0FBF2FCB0FBA1
:1003C000F2F302FB1C00303078541846491C002818
:1003D000F3D123462A463046BDE8F04100F03AB951
:1003E000000000002D0000002B0000002000000095
:1003F0002DE9F05F894604464FF0000ADFF874B13A
:10040000FB44C0F820A02046E1688847002874D04B
:10041000252806D0D4E901219047206A401C20629B
:10042000F1E700265F462046E16888472028054618
:1004300007DB312D05D2781910F8200C08B10643DE
:10044000F1E7B00701D526F00406C4F81CA0002788
:10045000C4F818A02A2D09D0284602F072FD38B33E
:1004600004EB8708303DC8F8185019E059F8041B10
:10047000204604EB87029161E1688847012F054619
:1004800018D1E069002820DA26F020061DE0D8F80F
:10049000180000EB800005EB40003038C8F8180069
:1004A0002046E1688847054602F04BFD0028EED162
:1004B000012F0AD02E2D08D12046E16888477F1CE5
:1004C0000546022F46F02006C4DBA069002803DAA7
:1004D000404246F00106A061F00701D026F0100668
:1004E0006C2D0BD0682D09D04C2D39D06A2D35D00C
:1004F000742D35D07A2D33D016E038E0E1682F46E0
:1005000020468847B842054609D16C2F26D04FF4C3
:100510008060E168064320468847054604E06C2F6A
:100520001AD04FF4807006430DB3A5F1410019288D
:1005300002D8203546F400664A4629462046266001
:100540004E46FFF72FFE80B101280BD0F61D26F096
:10055000070000F1080956E74020E4E78020D8E7CB
:100560000020D6E706F104094DE7284652E7206A45
:10057000BDE8F09F7E4A000030B505460B462A468E
:1005800013F8014B12F8010B08B1A042F8D01CB1CE
:10059000002802D06D1CF1E7284630BD10B5431C81
:1005A00002E010F8011B71B18107FAD14FF001325E
:1005B00002C88C1A8C4314EAC211F9D0C01A0A0678
:1005C00003D0C01E10BDC01A10BD0A0401D0801E89
:1005D00010BD0902FCD0401E10BD70477047704727
:1005E000704770B5044685690068C10601D530269C
:1005F00000E02026C00707D070BDD4E901213046B5
:100600009047206A401C20626D1EF6D570BD70B503
:10061000044685690078C00707D170BDD4E901217F
:1006200020209047206A401C20626D1EF6D570BDC8
:1006300009684A0501D540B27047C905FCD500B22A
:10064000704709684A0501D5C0B27047C905FCD595
:1006500080B270472DE9F0470D4699469246044610
:1006600000F124080168880604D5E06921F0100132
:10067000216000E00120A84201DD471B00E00027C7
:10068000A1697A1902EB0900081AA0612078C00656
:1006900002D42046FFF7A5FF002608E0D4E9012197
:1006A0001AF806009047206A401C761C20624E45CE
:1006B000F4DB2078C0060AD52046FFF792FF06E05B
:1006C000D4E9012130209047206A401C2062381E66
:1006D000A7F10107F4DC07E0D4E9012118F80500CF
:1006E0009047206A401C2062281EA5F10105F3DC1A
:1006F0002046FFF78CFF2078000602D50220BDE8D7
:10070000F0870120FBE711680268006A530501D5F4
:1007100008700AE0D30501D5088006E0130603D56A
:10072000C217C1E9000200E0086001207047000024
:1007300001694A1C02610878704700B58FB0CDE9A5
:1007400001310021059105497944CDE90310114695
:100750006846FFF74DFE0FB000BD0000E5FFFFFF4C
:100760000A6802F8010B0A60704710B5436913B1BB
:10077000AFF3008001E0FFF7D5FD012010BD127836
:1007800000F124010A7000224A700122EDE711688D
:100790004FF0FF32E9E70000074B70B50D467B4490
:1007A000FFF7CBFF0446284600F00CFD10B14FF0D8
:1007B000FF3070BD204670BD8F2800002DE9FF5F1F
:1007C00015468A460446DFF8AC80F8440027D8E98D
:1007D00000103E46CDE9001010E03AF816106A46C7
:1007E00002A800F0F3FC411C07D02178890603D54C
:1007F000E269391891420DD80744761C20788006AA
:1008000002D5E069B84205DDAE42E6DB3AF81600F3
:100810000028E2D1A069C01BA0612046FFF7E1FEDD
:10082000D8E90010CDE90010002017E03AF81810C0
:100830006A4602A800F0CAFCB0F1FF3F81460BD027
:1008400000250DF1080B05E0D4E901211BF8050096
:1008500090476D1C4D45F7D308F10100B04280462A
:10086000E4DB206A384420622046FFF7D0FEBDE872
:10087000FF9F0000C64600002DE9F0418046D21DD2
:1008800022F007020025D2E90002F52915A614D0AE
:10089000011E72F1000106DA0023D0EB030063EBC6
:1008A000020211A608E0D8F800108B0701D50FA6A8
:1008B00002E0490701D50EA601251146002408F1E2
:1008C000240704E000F098F830323A55641C50EAEE
:1008D0000102F7D12B46324621464046BDE8F041A1
:1008E000FFF7B8BE000000002D0000002B00000044
:1008F0002000000030B4002100F1240408E002F0E0
:100900000705D208303542EA4372DB086554491CBA
:1009100052EA0305F3D10468002310A2250708D585
:1009200004F020040C4304D0C46901230CA2641E0B
:10093000C46130BCFFF78EBE10B504462146106876
:10094000FFF77FFE02462046BDE810400023D1E7B6
:10095000D21D22F00701D1E90023CBE700000000FF
:1009600030000000F0B40D460188090502D5214C85
:100970007C4402E01F4C7C440E34002100F124062C
:1009800008E002F00F071209E75D42EA03721B0953
:100990007754491C52EA0307F3D102780023120767
:1009A00004D5702D06D009B1022311342246F0BCC3
:1009B000FFF750BE01231034F8E770B504460D462A
:1009C00021461068FFF73DFE024629462046BDE855
:1009D00070400023C6E7D21D22F00703D3E90023AD
:1009E000C0E70368126843F0200303600823C36173
:1009F0000023B7E72845000030B5B0F10A024FEAFE
:100A0000900E71F100034EEA817EB0EB0E0061EBB7
:100A100091014FEA101E4EEA017E10EB0E0041EBF1
:100A200011114FEA102E4EEA016E10EB0E0041EB51
:100A300011214FEA104E4EEA014E10EB0E0041EB31
:100A40001141401841F100014FEAD00040EA4170E5
:100A50004FEAD10110EB80054FEA810444EA90741B
:100A600044EB01046D1944EB0404521BA3414FF005
:100A7000000348BF0A3200D530BD401C41F10001DF
:100A800030BD70472DE9FF4F0C461E464FF0FF3733
:100A90008BB0D2E90001DDF860800A908A46C1F38C
:100AA0000A5505B93D46002108464FF00000BAF14D
:100AB000000F00F4400005DA00EB80004FF4400125
:100AC00001EA50004FEA9059B9F1010F00DDB94633
:100AD0000A9850EA4A000ED044F61050A5F2FF35AD
:100AE00045432F14B8F1000F1ED07542291E1EDD9C
:100AF000C9F100021CE0B8F1010F4FF0000001D075
:100B0000302103E0F24305E02154401CB042FBDBFE
:100B100030460022002121540B99C1F80880C1E918
:100B200000200FB0BDE8F08FBD1B6D1CDEE74A460C
:100B300000DA694206A800F0DBFB06AB93E8070089
:100B400003AB83E8070050460A9900F089FC8DE862
:100B50000700A0F500501F3800900398002D09DD14
:100B600042F21F014A46084403A90390684600F078
:100B7000E8FE08E0A0F500504A461F3803A903909C
:100B8000684600F0F2FE8DE807000004000C03D078
:100B90004FF0FF30410800E01046B8F1000F03D0DD
:100BA0000022009215461EE0751E05D4FFF724FFB3
:100BB000303262556D1EF9D5B3460122084302D08A
:100BC00000227F1C04E02078302801D100227F1E03
:100BD000002A099786D01DE0112D07DAFFF70CFFD8
:100BE000303262556D1C50EA0102F5D1084302D043
:100BF0000098C8B10EE00021681E05E0235C625C2D
:100C000063542254401E491C8142F7DBAB46A81BAB
:100C1000401E0990002004F80B000B98099AC0F8B8
:100C20000880C0E9002B7CE711264FF0000859E747
:100C30002DE9F04F88460446D21D22F0070191B0FD
:100C4000D1E90001CDE90A0102F067F902460B98EB
:100C5000C00F01D02D2007E02068810701D52B208F
:100C600002E0202101EAC000032A099001D0072AEE
:100C700005DB03464146204600F0FAFA0BE12078F6
:100C8000800601D5E06900E00620B8F1650F8146D5
:100C900006D0B8F1660F18D0B8F1670F70D131E007
:100CA0000020B9F1110F009001DB112301E009F1DF
:100CB00001030AAA01A90CA8FFF7E4FEDDE90C7004
:100CC000002609F10105834647E001204B460090CC
:100CD0004FF000470AAA01A90CA8FFF7D3FEDDE9EF
:100CE0000DB00C995D46002610B909F101000D18F0
:100CF000B9EB050003D4C0F1FF3609F10105A5EBFE
:100D000009002BE0B9F1010F01DA4FF001090020D1
:100D1000B9F1110F0090484601DD112300E00346B0
:100D20000AAA01A90CA8FFF7ADFEDDE90C704D463B
:100D300000268346207800070AD4AB4500DA5D46DA
:100D400001A8012D04DD411911F8011C302907D03B
:100D50004F4502DA17F1040F04DA012082460FE052
:100D60006D1EEEE7002F02DCED1B3E4403E0781C15
:100D7000A84200DD7D1CB81B00F1010A4FF00047BE
:100D80002078000703D4AA4501DB4FF0FF3A002189
:100D9000B7F1004F0DF143088DF8431024D0022025
:100DA0002B23002F01DA7F422D230A21021EA0F1FE
:100DB000010000DC5FB197FBF1FC97FBF1F201FB56
:100DC0001C7C17460CF1300C08F801CDEEE7A8F1B9
:100DD000010003702188090501D5452100E0652146
:100DE000A0F1010800F8011C09980FA9A1EB080760
:100DF000FF1D00B10120411901EBEA70A1693844DF
:100E0000081A401EA0612078C00602D42046FFF7D1
:100E1000E8FB099828B1D4E901219047206A401CD9
:100E200020622078C00622D52046FFF7DAFB1EE0BC
:100E3000002E04DBB34502DD01A8805D00E0302018
:100E4000D4E901219047206A401C2062761CAAF157
:100E500001005FEA000A0AD100F006FAC0680168E2
:100E6000405CD4E901219047206A401C2062281E82
:100E7000A5F10105DCDC07E0D4E9012118F8010B3C
:100E80009047206A401C2062381EA7F10107F3DC5E
:100E90002046FFF7BCFB032011B043E62DE9F04FDD
:100EA00004460D46D21D22F0070089B0D0E9009219
:100EB00048461746394602F030F80246F80F01D08E
:100EC0002D2307E02068810701D52B2302E0202194
:100ED00001EAC0038DF820300BB1012000E00020B2
:100EE000032A824601D0072A04DB2946204600F067
:100EF000BFF93DE12078800601D40D2500E0E569C9
:100F0000C7F30A560D2D49DA00214FEA175B084650
:100F10004FF00000002F00F4400007DA00EB8000E3
:100F20004FF4400100EBD07001EA60008115012907
:100F300001DD4FF0FF3100224FEA850CBCF1180FA4
:100F400006D31346ACF118004FF08052C24003E0C4
:100F50004FF4801323FA0CF30CF10C0CBCF1200FAE
:100F600004D3ACF1200C09FA0CF001E007FA0CF004
:100F700000294FF0004801DD18B90FE00ED14045BF
:100F80000CD319EB02095F4121B9404502D19F43BF
:100F900029EA0209BBEB175F00D0761C2088000508
:100FA00002D57B48784402E079487844193808AA89
:100FB000302302F80A30037C0AF10101002E0AF105
:100FC000020A53546A4602DC4FF0300101E04FF050
:100FD00031014FF001088DF8001002D0A6F2FF3663
:100FE00003E059EA470100D06A4E002D02DC217867
:100FF000090704D54FF002082E218DF80110C446D0
:1010000000210BE0C7F303433F01C35C491C6D1E85
:1010100002F80830052908F1010801DA002DF1DC99
:1010200000210CE000EB1973491C1B786D1E082988
:1010300002F808304FEA091908F1010801DA002D19
:10104000F0DC2178890602D514E0A8F10108E0451A
:1010500005DD02EB080111F8011C3029F5D0B8F1CB
:10106000000F07DD02EB080111F8011C2E2901D148
:10107000A8F10108002D05DD3E2102F808106D1EC3
:1010800008F10108407C002E02F8080008F1010870
:1010900004DA2D20764202F8080002E02B2002F844
:1010A00008000A214FF47A70864208F101080BDB30
:1010B00096FBF0F3303302F8083096FBF0F308F1BA
:1010C000010800FB136601E0642E0CDB642096FB34
:1010D000F0F3303302F8083096FBF0F308F1010822
:1010E00000FB136601E00A2E06DB96FBF1F03030C0
:1010F00002F8080008F1010896FBF1F001FB10600E
:10110000303002F80800A16908F1010808EB050277
:1011100002EB0A00081AA0612078C00602D420461B
:10112000FFF75FFA216A08AE01EB0A00206204E0D3
:10113000D4E9012116F8010B9047BAF1010AF7D260
:101140002078C00602D52046FFF74BFA6E4609E02C
:1011500016F8010B3E280FD0D4E901219047206AF0
:10116000401C2062B8F10108F2D22046FFF74FFA86
:1011700009B00320BDE8F08F206A2844206203E014
:10118000D4E90121302090476D1EEBD3F8E7000031
:101190002F3F000002FCFFFF10B5436913B1AFF30E
:1011A000008001E0FFF70AFB012010BD128800F16A
:1011B000240182840022C2840122EDE711684FF0ED
:1011C000FF32E9E7007B00F08000704770B51646FB
:1011D0000C46054600F040F8036893F80101012829
:1011E00006D0FF2C0FD8185D68B101202C7070BD9F
:1011F000D3F807013246214603F207130344284679
:10120000BDE8704018474FF0FF3070BD754600F0E4
:10121000E3F8AE4605006946534620F007008546D0
:1012200018B020B5FFF736F8BDE820404FF00006B3
:101230004FF000074FF000084FF0000B21F00701BE
:10124000AC46ACE8C009ACE8C009ACE8C009ACE801
:10125000C0098D467047000010B500F005F8001D6C
:1012600010BD00BFA52E000000487047D0330020FD
:101270002DE9F0411F46044603260168072A01F4C0
:10128000006004DB08B116A505E016A503E008B16F
:1012900015A500E015A521F010002060A069C01E72
:1012A000A0610FB1401EA0612046FFF79AF94FB12F
:1012B000D4E9012138469047206A401C2062C01CB6
:1012C000206206E0206AFAE7D4E9012115F8010B53
:1012D0009047761EF8D22046FFF799F9BDE8F081D5
:1012E0004E414E006E616E00494E4600696E6600CA
:1012F0002DE9F047814616468AB0334878440DC838
:101300008DE80D0030487844801C03AC0DC884E89B
:101310000D0041F69B300844372190FBF1F290FB21
:10132000F1F5A5F1800501FB12041B3C02D56442D6
:10133000012000E00020DFF890A080460027FA445A
:10134000AAF1BE0A0DE0E00709D03246684607EB75
:1013500047010AEB810100F008FB8DE807006410EB
:101360007F1C002CEFD1184F7F44AC3F18E0E807FA
:1013700014D007EB04100DF1180A90E80E008AE86B
:101380000E00C068F04201D198190890324606A9B3
:1013900003A800F0EAFA03AB83E807006D10641CB1
:1013A000002DE4D132466946B8F1000F03A802D0FF
:1013B00000F0C7FA01E000F0D8FAC9E90001C9F865
:1013C00008200AB0BDE8F087683C00000446AFF38F
:1013D00000802046FEF749FF00487047B0330020E8
:1013E0004FF0013C50F8042B51F8043B9A4221D1B4
:1013F000A2EB0C03934313EACC1317D150F8042B40
:1014000051F8043B9A4215D1A2EB0C03934313EA23
:10141000CC130BD150F8042B51F8043B9A4209D15C
:10142000A2EB0C03934313EACC13DBD04FF0000084
:10143000704700BFD01A01BAB1FA81F101F018016A
:1014400022FA01F0CB40C1F12001DBB2C0B2C01AD8
:101450002CFA01F3D11A914311EAC311E6D1704776
:101460005FEA400C08BF91F0000F4FEA8C234FEA6F
:10147000C12243EA51514FEA1C5018BF00F5F04019
:101480004FEA300018BF41F000415FEA6C5C00F0A9
:101490002980BCF1FF3F08BF40F080407047130C2B
:1014A00006BF12044FF0100C4FF0000C130E04BFD7
:1014B00012020CF1080C130F04BF12010CF1040C02
:1014C000930F04BF92000CF1020CD30F04BF520023
:1014D0000CF1010C11464FF00002A0F11F00A0EB2F
:1014E0000C00704711F0004F08BF704731F0004109
:1014F0003FF4D5AF0B0C06BF09044FF0100C4FF0B2
:10150000000C0B0E04BF09020CF1080C0B0F04BFFA
:1015100009010CF1040C8B0F04BF89000CF1020CC3
:10152000CB0F04BF49000CF1010CCCF12003A0EB60
:101530000C0022FA03F302FA0CF241EA030100F173
:101540000100704720F07F4C80EA030023F07F47C2
:10155000ACEB070303F57C5300F0004003F1FF03FD
:101560002DE980494FEA154B09B44FEA144325EAA7
:101570000B4E24EA03480FF2042606EB1327490812
:101580003E785FEA320203FB0667C7F5000707FBF8
:1015900006F64FEA54374FEAD64606F1020607FB35
:1015A000066CCCF1005C4FEA1C472CEA074C07FBA9
:1015B00006F40CFB06F504EB15464FEA961634BF0D
:1015C00000204FF000404FEAD13706FB07FC4FEAFE
:1015D0001C4C0CFB0BF7D21B03FB0CF761EB070158
:1015E0000CFB0EF7B0EB074072EB17420CFB08F751
:1015F00034BFA2EB0742B2EB074261EB17414FEA5F
:101600000C444FEA910706FB07FC4FEA1C4C0CFB0D
:101610000BF7B0EBC74072EB573203FB0CF734BF4C
:10162000A2EBC742B2EBC74261EB57310CFB0EF79E
:10163000B0EBC70072EB57720CFB08F734BFA2EB9C
:10164000C702B2EBC70261EB5771039F4FEA81619A
:1016500041EA921104EBCC044FEAD1374FEA82629F
:1016600006FB07FC42EA90124FEA80604FEA1C4CEE
:101670000CFB0BF7D21B03FB0CF761EB07010CFB18
:101680000EF7B0EB074072EB17420CFB08F734BFC4
:10169000A2EB0742B2EB074261EB17414FEA8C55D0
:1016A0004FEA910704EB9C2406FB07FC4FEA1C4C15
:1016B0000CFB0BF7B0EBC74072EB573203FB0CF798
:1016C00034BFA2EBC742B2EBC74261EB57310CFB10
:1016D0000EF7B0EBC70072EB57720CFB08F734BF84
:1016E000A2EBC702B2EBC70261EB577115EB4C25B9
:1016F0004FEA816141EA92114FEA82624FEAD137A3
:1017000042EA901206FB07FC44F100044FEA8060B5
:101710004FEA1C4C0CFB0BF7D21B03FB0CF761EBE5
:1017200007010CFB0EF7B0EB074072EB17420CFB06
:1017300008F734BFA2EB0742B2EB074261EB174157
:1017400015EB1C154FEA813141EA92414FEA823292
:1017500042EA90424FEA80304FEA0C7644F10004AE
:1017600048EA03434EEA0B484FF0000EB2EB080C78
:1017700071EB030724BF624639464EEB0E0E4FF065
:10178000000B0018524149414BEB0B0BB2EB080C1C
:1017900071EB03077BF1000B24BF624639464EEB29
:1017A0000E0E4FF0000B0018524149414BEB0B0B52
:1017B000B2EB080C71EB03077BF1000B24BF624610
:1017C00039464EEB0E0E51EA020718BF46F00106ED
:1017D00016EB0E7655F1000254F1000103D5BDE879
:1017E0008901BDE80088BDE88901BDE80048B61957
:1017F000524141EB0101A3F10103704780807F7EDC
:101800007D7C7B7A79787776767574737271717076
:101810006F6E6E6D6C6C6B6A6A6968686766666528
:101820006464636362616160605F5F5E5E5D5D5CB6
:101830005C5B5B5A5A595958585757565655555527
:101840005454535352525251515050504F4F4F4E87
:101850004E4D4D4D4C4C4C4B4B4B4A4A4A494949D5
:101860004848484747474746464645454544444417
:10187000444343434342424242414141002B26D428
:10188000770021D01CB54FEA370703B44FF01000A2
:101890004FF010014FF000000FBCBDE810400BF1FD
:1018A000010BBBF1010F08BF5FEA170722BF12F15E
:1018B000010211F101014FF0004143F1000300F07A
:1018C000004043EA00007047F9D35708DAE746EAD8
:1018D000064613F1400F4FEA16461FDD13F1200FA5
:1018E000DFBF16430A46002120335B42C8D0C3F154
:1018F000200746EA064602FA07F74FEA164646EA86
:101900000706C3F1200722FA03F201FA07F721FACA
:1019100003F14FF0000342EA0702B1E746EA02068C
:1019200046EA06464FEA164646EA0106BCBF46EAC4
:101930000646360C4FF000034FF000024FF0000156
:101940009EE72DE9C048934630B491E8380007C8B7
:1019500031EA400C48BF34EA430C03D5FFF7F2FDEF
:10196000FFF78CFFF0BCBDE800882DE9C048934626
:1019700030B491E8380007C810F0804F08BF13F06A
:10198000804F03D100F005F8FFF778FFF0BCBDE809
:10199000008820F07F4780EA030023F07F4C07EBAC
:1019A0000C03A3F57C5300F00040A3F1FE0392F07A
:1019B000000F00F0B38095F0000F00F077802DE964
:1019C00001494FEA11404FEA144621EA004800FB62
:1019D00006FC24EA064708FB06F607FB08F800FBAE
:1019E00007F718EB06484CEB164C4FEA124B18EB76
:1019F00007484FEA15464CEB174022EA0B4E0BFB0B
:101A000006FC25EA06470EFB06F607FB0EFE0BFB5F
:101A100007F71EEB064E4CEB164C4FF000061EEB84
:101A2000074E4CEB174B18EB0B0840F1000018EB7E
:101A30000E0B58EB000840F100008F1A4FF0000128
:101A40003CBFC943661B14BFB5EB040C00213CBF6F
:101A5000C943F61B4FEA17444EEA8E0E27EA0445A7
:101A60004FEA1C4704FB07622CEA074C05FB07F70B
:101A70000CFB05F604FB0CFC16EB074642EB174289
:101A800016EB0C4642EB1C421BEB060658EB02021F
:101A9000414146EA9E0601D5BDE80189B619524189
:101AA00041EB0101A3F10103BDE801894FEA1445AF
:101AB0004FEA114724EA054621EA074C05FB07F4E3
:101AC00006FB07F70CFB06F105FB0CFC11EB0741CD
:101AD00044EB17444FEA124711EB0C4144EB1C4412
:101AE00022EA074C05FB07F206FB07F70CFB06F69C
:101AF00005FB0CFC16EB074642EB174216EB0C46B7
:101B000042EB1C456A1854F1000148BF7047B619F2
:101B1000524141EB0101A3F10103704795F0000F21
:101B200037D04FEA11424FEA144721EA024624EA2D
:101B3000074C02FB07F106FB07F70CFB06F402FB60
:101B40000CFC14EB074441EB17414FEA154714EB2B
:101B50000C4441EB1C4125EA074C02FB07F506FB50
:101B600007F70CFB06F602FB0CFC16EB074645EBF1
:101B7000174516EB0C4645EB1C42121951F10001BA
:101B800048BF7047B619524141EB0101A3F101036F
:101B900070474FEA14454FEA114724EA054621EA07
:101BA000074C05FB07F106FB07F70CFB06F24FF0AD
:101BB000000605FB0CFC12EB074241EB174112EB50
:101BC0000C4251EB1C4148BF7047921841EB010198
:101BD000A3F10103704700BFFEE7000008B5012133
:101BE000082000F02BFE04208DF803008002ADF8E1
:101BF000000003208DF802006946024800F005FA53
:101C000008BD0000000C014008B50121082000F0CB
:101C100015FE10208DF803000002ADF8000003202F
:101C20008DF802006946024800F0EFF908BD000097
:101C3000000C01402DE9F84F00F07EF84FF4805180
:101C4000264800F078FA4FF48051244800F068FAF2
:101C5000C8BB00BF4FF48051204800F061FA002853
:101C6000F8D000BF4FF480511C4800F059FA012809
:101C7000F8D000F037F8044600F034F8054600F0DC
:101C800031F8064600F02EF8074600F02BF80090D9
:101C90004FF48051114800F04CFA372001F0A2F9BE
:101CA0004FF480510D4800F046FA60193044C119D4
:101CB0000098814207D104F0FF0805F0FF0906F003
:101CC000FF0A07F0FF0B0648C0F80080C0F8049038
:101CD000C0F808A0C0F80CB0BDE8F88F000C0140B7
:101CE0006C2B002070B5002500BF1FE000BF4FF433
:101CF0008051104800F014FA0028F8D01E2001F09E
:101D000071F96006040E4FF480510A4800F008FA99
:101D1000012801D144F0010400BF4FF4805105486F
:101D200000F0FEF90128F8D0681CC5B2082DDDDBF3
:101D3000204670BD000C014010B5FFF765FF4FF461
:101D400080510C4800F0F7F91E2001F04BF94FF4D8
:101D50008051084800F0EDF9142001F01DF94FF40E
:101D60008051044800F0E7F91E2001F03BF9FFF72D
:101D700035FF10BD000C014010B500241548006867
:101D800020F47040134908600846006840F40040A1
:101D9000086004E0601CC4B2012001F023F90E4881
:101DA000006808B1C82CF5DBC82C01DB012010BD90
:101DB000002404E0601CC4B2012001F013F90648BD
:101DC000006808B9F02CF5DBF02C01DB0120EEE710
:101DD0000020ECE7040801402C0121422DE9F84FD6
:101DE00000F0CCF800F0A8F8FFF7C6FFCC2000F018
:101DF000D1F8BE2000F0CEF800F08CF8834600F059
:101E000089F80446072C08DDE043C4B26FEA0B00F2
:101E100000F0FF0B4FF0000A01E04FF0010AA1466D
:101E20004FEA09200FFA80F909EB0B000FFA80F94D
:101E3000484602F0B7FB009002F0AAFA07460022DB
:101E4000084B02F0A7F9054602F074F90FFA80F981
:101E5000BAF1000F02D04846BDE8F88FC9F1000082
:101E600000B2F9E70000E43F08B50121042000F0CA
:101E7000E5FC4FF40060ADF8000010208DF8030081
:101E800003208DF802006946064800F0BEF84FF4C2
:101E90000061044800F04FF900F04EF8FFF76CFFC6
:101EA00008BD00000008014010B51748006820F484
:101EB0007040154908600846006840F440500860CA
:101EC000002012490860022001F08CF8012010491E
:101ED000C1F8AC010C48006820F470400A49086061
:101EE0000846006840F4004008600C2001F07AF8D1
:101EF00006488038006808B1012400E00024322040
:101F000001F070F8204610BD04080140AC012142E8
:101F10000000214270B50026012508E0FFF7C4FF4C
:101F20000446E00140EA6600C6B2681CC5B2082D4E
:101F3000F4DD304670BD000010B50D48006820F497
:101F400070400B4908600846006840F44050086043
:101F500000200849086040F2EE2001F043F801201B
:101F60000549C1F8AC010F2001F03CF810BD00009C
:101F700004080140AC0121420000214210B5FFF7E6
:101F8000DBFFFFF7F9FECC2000F004F8442000F05E
:101F900001F810BD70B504461848006820F4704080
:101FA000164908600846006840F440500860012562
:101FB00020E004F0010664106EB1002010490860B2
:101FC000022001F00FF801200E49C1F8AC013C20BD
:101FD00001F008F80CE00020094908603C2001F0FD
:101FE00001F801200749C1F8AC01022000F0FAFF16
:101FF000681CC5B2082DDCDD70BD0000040801407E
:10200000AC0121420000214270472DE9F041024617
:1020100000250026002000230024002791F803C09B
:102020000CF00F0591F803C00CF0100CBCF1000F80
:1020300003D091F802C04CEA050591F800C0BCF14C
:10204000000F31D0146800202BE04FF0010C0CFA87
:1020500000F3B1F800C00CEA03069E4220D18300D1
:102060004FF00F0C0CFA03F7BC4305FA03FC4CEAE3
:10207000040491F803C0BCF1280F06D14FF0010C05
:102080000CFA00FCC2F814C00AE091F803C0BCF1DD
:10209000480F05D14FF0010C0CFA00FCC2F810C03B
:1020A000401C0828D1D31460B1F800C0BCF1FF0F68
:1020B00034DD546800202EE000F1080C4FF00108D8
:1020C00008FA0CF3B1F800C00CEA03069E4221D1D5
:1020D00083004FF00F0C0CFA03F7BC4305FA03FC26
:1020E0004CEA040491F803C0BCF1280F05D100F1BB
:1020F000080C08FA0CF8C2F8148091F803C0BCF17F
:10210000480F07D100F1080C4FF0010808FA0CF84D
:10211000C2F81080401C0828CED35460BDE8F0817E
:102120000246002093680B400BB1012000E0002024
:10213000704741617047016170470AB1016100E079
:102140004161704700BFFEE710B500200F490860ED
:102150000F48006820F00F000D490860084600682D
:1021600040F00700086000200A49C1F8A0010220E1
:1021700000F038FF012005490860022000F032FF1E
:1021800000200449C1F89C0110BD00009C8121423F
:10219000040C01400080214208B50121082000F014
:1021A0004DFB4FF4C070ADF8000010208DF8030017
:1021B00003208DF8020069460448FFF726FF01203E
:1021C000034908600349C1F8A00108BD000C0140A3
:1021D0009C8121420080214210B500200F490860F7
:1021E0000F48006820F00F000D490860084600689D
:1021F00040F00700086001200A49C1F8A001022050
:1022000000F0F0FE012005490860022000F0EAFE1F
:1022100000200449C1F89C0110BD00009C812142AE
:10222000040C01400080214270B505460024174887
:10223000006820F00F00154908600846006840F06B
:1022400004000860002616E0002011490860022002
:1022500000F0C8FE01200F49C1F89C016006040E81
:102260000B487C38006808B1601CC4B2012000F043
:10227000B9FE701CC6B2082EE6DB15B9FFF7ACFF3D
:1022800001E0FFF761FF204670BD0000040C014033
:102290009C8121420080214270B5044615480068A7
:1022A00020F00F00134908600846006840F007005E
:1022B0000860002010490860002517E0E0090E4979
:1022C000091D08606006040E022000F08BFE01204C
:1022D0000A49C1F89C01022000F084FE0020064952
:1022E0000860022000F07EFE681CC5B2082DE5DB08
:1022F00070BD0000040C01409C81214200802142FD
:1023000010B50F48006820F00F000D49086008461E
:10231000006840F00700086001200A4908600A4987
:10232000C1F89C01042000F05DFE00200549086012
:10233000042000F057FE00200349C1F89C0110BDA5
:10234000040C0140A08121420080214210B50F48B9
:10235000006820F00F000D4908600846006840F052
:102360000700086000200A4908600A49C1F8A00176
:10237000042000F037FE0120054908600549C1F836
:10238000A001042000F02EFE10BD0000040C01404E
:102390009C8121420080214210B50024144800682D
:1023A00020F00F00124908600846006840F0040061
:1023B000086001200F49086000F014FE01200E495A
:1023C000C1F89C0100F00EFE07E0601CC4B2FA2CBC
:1023D00003DDFFF7BBFF012010BD06488038006811
:1023E0000028F2D10349091F086000BFF4E700008C
:1023F000040C0140A08121420080214208B5012146
:102400000C2000F01BFA4FF48070ADF80000102093
:102410008DF8030003208DF8020069461048FFF78D
:10242000F4FD4FF480710E48FFF783FE2020ADF8D5
:10243000000069460B48FFF7E8FD20210948FFF737
:1024400078FE4FF40050ADF8000069460548FFF7EC
:10245000DCFD4FF400510348FFF76BFE08BD0000A0
:1024600000080140000C014000BFFEE7704700007B
:1024700070B5002100230F22C47804B3154C2468E2
:1024800004F4E064C4F5E064210AC1F10403CA4025
:10249000447804FA03F184781440214309010E4C76
:1024A0000678A155047804F01F050124AC40057896
:1024B0006D11AD0005F1E025C5F8004109E0047893
:1024C00004F01F050124AC40044D0678761145F850
:1024D000264070BD0CED00E000E400E080E100E08B
:1024E00002490143024A1160704700000000FA05EA
:1024F0000CED00E070B500240EE00021204600F055
:10250000EAF8002504E0002000F076F9681CC5B266
:10251000802DF8DB601CC4B2082CEEDB70BD00001F
:1025200008B50121082000F089F914208DF8030076
:1025300003208DF802002020ADF8000069460A480B
:10254000FFF763FD4020ADF8000069460648FFF73D
:102550005CFD012220210448FFF7EFFD012240210C
:102560000148FFF7EAFD08BD000C014070B50546C3
:10257000002413E08020204100EA050240210E489B
:10258000FFF7DBFD012220210B48FFF7D6FD0022DB
:1025900020210948FFF7D1FD601CC4B2082CE9DBFB
:1025A000012220210448FFF7C8FD00222021024813
:1025B000FFF7C3FD70BD0000000C014010B5012203
:1025C00040210948FFF7B9FD012220210648FFF705
:1025D000B4FD002240210448FFF7AFFD0022202176
:1025E0000148FFF7AAFD10BD000C014010B5002204
:1025F00040210748FFF7A1FD012220210448FFF7F1
:102600009CFD012240210248FFF797FD10BD00000C
:10261000000C014070B5002406E0002500E06D1CB0
:10262000B5F57A7FFBD3641CB4F57A7FF5D3FFF759
:1026300077FFAE2000F0D0F8D52000F0CDF8802054
:1026400000F0CAF8A82000F0C7F83F2000F0C4F856
:10265000D32000F0C1F8002000F0BEF8402000F0C8
:10266000BBF8A12000F0B8F8C82000F0B5F8DA20D7
:1026700000F0B2F8122000F0AFF8812000F0ACF8C2
:10268000CF2000F0A9F8D92000F0A6F8F12000F042
:10269000A3F8DB2000F0A0F8302000F09DF8A42083
:1026A00000F09AF8A62000F097F88D2000F094F83A
:1026B000142000F091F8AF2000F08EF8FFF71AFF19
:1026C00070BD10B50246012000E050430B00A1F19F
:1026D0000101FAD110BD70B505460C4645F0B000B9
:1026E00000F07AF8102141EA141000F075F804F0B7
:1026F0000F0000F071F870BD2DE9F04105460E465F
:102700001746721ED206110E6A1E5206100EFFF7F1
:10271000E2FF002409E0A7F12001134A02EB0111B6
:10272000085D00F069F8601CC4B2082CF3DB721E6F
:10273000D206110E6A1E012303EB4202D0B2FFF74C
:10274000CAFF00240BE0A7F12001074A02EB0112A7
:1027500004F10801505C00F04FF8601CC4B2082C72
:10276000F1DBBDE8F0810000924800082DE9F04758
:1027700080460E4617461D46002415E0281B411EC4
:102780000A20FFF79EFFB7FBF0F00A21B0FBF1F241
:1027900001FB120000F130093019C1B24A4640462F
:1027A000FFF7AAFF601CC4B2AC42E7DBBDE8F087CC
:1027B0002DE9F04107460E461546002407E02A5D44
:1027C0003019C1B23846FFF797FF601CC4B2285DCC
:1027D0000028F4D1BDE8F08110B50446FFF7EEFE05
:1027E0007820FFF7C3FE0020FFF7C0FE2046FFF76A
:1027F000BDFEFFF7FBFE10BD10B50446FFF7DEFE81
:102800007820FFF7B3FE4020FFF7B0FE2046FFF729
:10281000ADFEFFF7EBFE10BD7047000029B1064A80
:10282000D2690243044BDA6104E0034AD26982436D
:10283000014BDA61704700000010024029B1064ADE
:1028400092690243044B9A6104E0034A926982430D
:10285000014B9A61704700000010024030B5002122
:102860000022002400232D4D6D6805F00C0121B1DC
:10287000042905D0082923D105E0294D056022E06F
:10288000274D05601FE0254D6D6805F47012234D3E
:102890006D6805F48034022505EB92421CB9214D88
:1028A000554305600BE01D4D6D6805F400351DB105
:1028B0001C4D5543056002E0194D5543056002E08B
:1028C000174D056000BF00BF144D6D6805F0F001A5
:1028D0000909154D6B5C0568DD4045600F4D6D685D
:1028E00005F4E061090A104D6B5C4568DD408560C8
:1028F0000A4D6D6805F46051C90A0B4D6B5C456863
:10290000DD40C560054D6D6805F44041890B074DFC
:102910006B5CC568B5FBF3F5056130BD0010024086
:1029200000127A0000093D006400002074000020BD
:10293000704710B500F002F810BD00000CB5002083
:10294000019000903348006840F4803031490860BD
:1029500000BF3048006800F4003000900198401C2F
:102960000190009818B90198B0F5A06FF1D12948ED
:10297000006800F4003010B10120009001E0002058
:1029800000900098012843D12348006840F01000CF
:10299000214908600846006820F0030008600846E6
:1029A000006840F0020008601A4840681949486011
:1029B0000846406848600846406840F480604860C7
:1029C0000846406820F47C1048600846406840F49F
:1029D000E81048600846006840F08070086000BF5A
:1029E0000C48006800F000700028F9D009484068E1
:1029F00020F00300074948600846406840F00200A4
:102A0000486000BF0348406800F00C000828F9D176
:102A10000CBD00000010024000200240042808D134
:102A20004FF0E021096941F004014FF0E02211610B
:102A300007E04FF0E021096921F004014FF0E022A6
:102A4000116170477047000010B51348006840F0EE
:102A500001001149086008464068104908400E49C5
:102A60004860084600680E4908400B49086008465F
:102A7000006820F4802008600846406820F4FE00CA
:102A800048604FF41F008860FFF753FF4FF000606D
:102A90000449086010BD0000001002400000FFF86B
:102AA000FFFFF6FE08ED00E010B586B001211C48DE
:102AB00000F087F8002831D01A48006808B90120D2
:102AC00000E0002017490860174880686421B0FBC7
:102AD000F1F201FB12041548407814490978144AB0
:102AE0001368114AD268CDE90042CDE90231049061
:102AF0000D484368006800F11A020E490E48FDF7C0
:102B0000FBFB0D490DA0FDF7EBFB64220EA10A486B
:102B100001F0B4FA0121024800F044F806B010BDFB
:102B200000040040948121426C2B00200E00002004
:102B300048000020C84F00087C2B002062756632D8
:102B40003A25730D0A0000004F4B000010B501211B
:102B5000084800F036F860B10748008840F40040AB
:102B6000054908800121034800F01CF8002000F00E
:102B700005F810BD000800408000002010B5044694
:102B800044B10021064800F02DF80121044800F06E
:102B90000CF803E00021024800F007F810BD000027
:102BA00000080040CA430282704721B1028842F007
:102BB0000102028004E002884FF6FE731A40028090
:102BC000704730B50246002000230024158A05EA2C
:102BD0000103958905EA010413B10CB1012000E05D
:102BE000002030BD8184704710B540F225511D484A
:102BF00000F0CDF810B31B4800F084F9C4B21A48B5
:102C0000008800F40040C8B91748008800F48040EC
:102C100060B10A2C06D11448008840F400401249E3
:102C200008801EE00020104908801AE00D2C06D113
:102C30000D48008840F480400B49088011E00A48A4
:102C40000088C0F30D00094921F8104006480088AB
:102C5000401C0549088008460088C72801DD00207F
:102C6000088010BD003801407C000020EC100020DE
:102C700010B540F22551134800F089F808B3114807
:102C800000F040F9C4B210480088B0F5806F12DA45
:102C900000210E48FFF7A6FF0B48008810B901205D
:102CA000FFF76CFF084801880088401C064A108026
:102CB0000748445405E00448008840F400400249B5
:102CC000088010BD00440040800000200008004043
:102CD000B02F002010B540F225511D4800F057F8E4
:102CE00010B31B4800F00EF904461A48008800F49F
:102CF0000040C8B91748008800F4804060B10A2C31
:102D000006D11448008840F40040124908801EE0B3
:102D10000020104908801AE00D2C06D10D480088CB
:102D200040F480400B49088011E00A480088C0F355
:102D30000D00094921F8104006480088401C05494B
:102D4000088008460088C72801DD0020088010BDE3
:102D5000004800407E0000207C12002021B18289C2
:102D600042F40052828104E082894DF6FF731A40DA
:102D70008281704702460020B1F5007F00D100BF7C
:102D800013880B400BB1012000E00020704770B5A4
:102D90000246002400230025002040F66A16B142B6
:102DA00000D100BFC1F3421501F01F03012606FA4E
:102DB00003F3012D02D19689334006E0022D02D1A2
:102DC000168A334001E0968A33400C12012606FA37
:102DD00004F41688344013B10CB1012000E0002047
:102DE00070BDF0B50346002400260025002040F603
:102DF0006A17B94200D100BF1846C1F3421401F06E
:102E00001F06012707FA06F5012C01D10C3004E05A
:102E1000022C01D1103000E014301AB107682F43A2
:102E2000076002E00768AF430760F0BD2DE9F04797
:102E300086B005460E460024A24600BFA1460027E4
:102E4000B08900B100BF2F462C8A4CF6FF700440B9
:102E5000F08804432C82AC894EF6F3100440B0880D
:102E600031890843718908430443AC81AC8A4FF629
:102E7000FF400440B0890443AC8201A8FFF7EEFC98
:102E80001F48874202D1DDF810A001E0DDF80CA058
:102E9000A88900F4004040B10AEBCA0000EB0A1018
:102EA00031684900B0FBF1F807E00AEBCA0000EB1B
:102EB0000A1031688900B0FBF1F86420B8FBF0F02B
:102EC00004012009642101FB1089A88900F4004055
:102ED00040B1322000EBC900B0FBF1F000F0070078
:102EE000044308E0322000EB09106421B0FBF1F04C
:102EF00000F00F0004432C8106B0BDE8F08700000D
:102F00000038014001468888C0F308007047C1F3CB
:102F100008028280704700BFFEE7490050EAC120E6
:102F200018BF04204A0D18BF40F0010040F2FF72A4
:102F3000B2EB515F08BF40F00200012808BF052036
:102F4000704730380A2801D20120704700207047AE
:102F500000BF704710B56FF00400FFF75FFD0A482F
:102F600000680A49B0FBF1F009490870084600788A
:102F700000EB4001C1EBC0104FF6FF7101EAC00049
:102F80000449088010BD00004C00002000127A00A7
:102F900060000020620000200146114A12884A4366
:102FA0004FF0E0235A6100229A611A46126942F0FA
:102FB00001021A6100BF4FF0E022106900F0010227
:102FC0001AB100F48032002AF5D04FF0E0221269E5
:102FD00022F001024FF0E0231A6100229A6170474B
:102FE000620000200146114A12784A434FF0E02364
:102FF0005A6100229A611A46126942F001021A616E
:1030000000BF4FF0E022106900F001021AB100F495
:103010008032002AF5D04FF0E022126922F001023E
:103020004FF0E0231A6100229A617047600000208F
:1030300000BF054A128802F04002002AF9D0C2B24D
:10304000014B1B1D1A807047003801403EB5C9482E
:10305000C94908600020C94908604FF4FA70C8499E
:1030600008600020C74908604DE000BFC6480068FE
:103070000128FBD0C549072000F05FFAC34800785B
:103080008007800BC149497840EA0120BF4989780F
:103090000843BF49BB4A126841F82200BB48C078C8
:1030A0008007800BB949097940EA0120B74949797D
:1030B0000843B849B34A126841F82200B448B149FC
:1030C000096850F82100AC490968884206D2B04826
:1030D000AC49096850F82100A7490860AC48A949E3
:1030E000096850F82100A5490968884206D9A8480E
:1030F000A449096850F82100A0490860A148006867
:10310000401CA04908609F4800689D4909688842A2
:10311000ABDB9F489B49096850F821009E49086035
:103120009E489F499F4AA04BCDE900210290984AB2
:1031300093480168974800F0B1FA6420914908600B
:103140003AE093488F49096850F821108D4800688B
:1031500064388F4A42F820108E488A49096850F82E
:1031600021108848006864388A4A42F8201088484C
:103170008449096850F821007F490968884206D2CD
:1031800083488049096850F821007B4908608048DD
:103190007C49096850F8210078490968884206D9B5
:1031A0007B487849096850F82100744908607548DF
:1031B0000068401C7349086072480068B0F5FA7FE7
:1031C000BFDB4FF4C8706F490860CBE06D48006802
:1031D000401E6F4951F820006F49086000BF6A48DF
:1031E00000680128FBD06949072000F0A6F967486C
:1031F00000788007800B6549497840EA01206349DF
:103200008978084362495F4A126841F822005F48A2
:10321000C0788007800B5D49097940EA01205B494D
:10322000497908435B49574A126841F822005848D7
:103230005449096850F8210057490968884231D932
:103240005349504A126851F82210534A1268881A9A
:1032500001F0C0F95549086048490968464A1268B2
:10326000881A01F0B7F9044621465048006801F079
:10327000BBF84E4908604E494C48006801F0BEF961
:103280004A4908600846006801F070F94949096830
:10329000081A4849086008460068002833DA002008
:1032A000086030E03A49374A126851F822103A4A29
:1032B0001268501A01F08EF93C4908602F490968DC
:1032C0002D4A1268881A01F085F9044621463748CC
:1032D000006801F089F835490860354933480068CD
:1032E00001F08CF9314908600846006801F03EF9A8
:1032F0003049096808442F49086008460068FF28DB
:1033000001DDFF2008602548007801280CD1244801
:103310000068782808DA224800782749087022488F
:1033200000782649087004E00020234908702349EA
:1033300008702148007822490870204800784870B9
:1033400016481749174A184BCDE900210290104A38
:103350000B4801680F4800F0A1F90A480068401CBA
:103360000849086007480068B0F5FA7FFFF62EAFFD
:103370003EBD0000FFFF0300280000202C000020BD
:10338000140000203400002024812142400000204D
:10339000B8080020E80000203000002024000020B1
:1033A000200000201C000020180000203C0000200D
:1033B00000007F4338000020460000204700002026
:1033C0000E00002010B50024FEF708FD044604F1AD
:1033D000250004B2204610BDFFF7BCFD4FF4A060ED
:1033E000FFF77EF84FF4165000F0D8FD4FF416505A
:1033F00000F07EFD24A0FCF773FF00F081FC00F0DC
:10340000DDF8FEF7C9FEFFF705F9FEF72DFD20A256
:1034100001210846FFF7CCF91FA201210220FFF786
:10342000C7F9FEF7EBFF2DE04FF47A70FFF7B4FD1C
:1034300000F092FC1A480223072182680120FFF75E
:1034400095F92E2209210120FFF756F9144802238D
:103450000A21C2680120FFF789F91148006800F1CC
:103460001A02022307211846FFF780F92E220921AC
:103470000220FFF741F90A4802230A214268184650
:10348000FFF774F9D0E7000031313131310D0A0016
:1034900073686964753A000077656E64753A000078
:1034A0006C2B002070B50446FEF72AFFAE20FEF715
:1034B000F3FEFEF771FF00B119E02046FEF7ECFEC7
:1034C000FEF76AFF00B112E0FEF71AFFAF20FEF729
:1034D000E3FEFEF761FF00B109E00020FEF7A4FE65
:1034E0000546FEF779FEFEF731FF284670BDFEF770
:1034F0002DFF0020FAE770B505460C46FEF700FFE9
:10350000AE20FEF7C9FEFEF747FF00B111E02846E6
:10351000FEF7C2FEFEF740FF00B10AE02046FEF7CC
:10352000BBFEFEF739FF00B103E0FEF70FFF0120FD
:1035300070BDFEF70BFF0020FAE770B505460C469C
:103540000020FFF7AFFF0120FFF7ACFFFEF7D8FE2A
:10355000AE20FEF7A1FEFEF71FFF00B12AE02846CD
:10356000FEF79AFEFEF718FF00B123E0FEF7C8FE53
:10357000AF20FEF791FEFEF70FFF00B11AE0012029
:10358000FEF752FE20700120FEF74EFE6070012013
:10359000FEF74AFEA0700120FEF746FEE070012013
:1035A000FEF742FE20710020FEF73EFE6071FEF73E
:1035B000CDFE00BFFEF7CAFE70BD000008B50121B8
:1035C0000820FFF73BF94FF48040ADF80000482099
:1035D0008DF8030069461A48FEF717FDFEF7DCFD7B
:1035E00000F030F8C0210220FFF785FF0021032002
:1035F000FFF781FF00210420FFF77DFF0021052058
:10360000FFF779FF00210620FFF775FF0F21082043
:10361000FFF771FF03210920FFF76DFF27210A2023
:10362000FFF769FF24210C20FFF765FF24210D20FF
:10363000FFF761FF7F211020FFF75DFF08BD00004D
:10364000000C014010B540210920FFF754FF402134
:103650000920FFF750FF10BD2DE9F84705460C463D
:1036600016461F46DDE90A9ADDF824803B463246BD
:1036700021462846CDF8008000F090FA4B463246AD
:103680002146284600F0C7FA2068504501DA206834
:1036900000E050462060BDE8F88700002DE9FF4FAC
:1036A000C6B08846994600204590002406E046981A
:1036B00050F82410459808444590641C4445F6DBB6
:1036C0004598B0FBF8F04590002408E0469850F883
:1036D00024104598081AFE4941F82400641C44450A
:1036E000F4DB002417E0FA4850F824100246601C6E
:1036F00052F820000144A01C52F820000144E01CB4
:1037000052F820000F183846F91707EB917189100D
:1037100042F82410641CB4F5F87FE4DB00240AE0CE
:10372000EB49601C51F8200051F82410401AE94977
:1037300041F82400641CB4F5F77FF1DD00240EE0AD
:10374000E44951F824200B46611C53F8211050180D
:1037500000EBD07149101A4642F82410641CB4F5ED
:10376000F77FEDDB00251BE0002043902C460BE0AB
:10377000D84850F82410601BD74A32F810204398DC
:1037800001FB12004390641C681D8442F0DB40F290
:103790007A41439890FBF1F0CE4941F825006D1C29
:1037A000B5F5F47FE0DD00204190002410E0C94829
:1037B00050F82400002803DDC64850F8240003E038
:1037C000C44850F824004042419908444190641C88
:1037D000B4F5F77FEBDD40F2EF11419890FBF1F08B
:1037E000419005210822419840F2EF13CDE90121D3
:1037F0000090B84A40A912A8FFF72EFF00201190B0
:103800004098022821DB01240BE012A850F8241074
:10381000601E12AA52F82000091A1198084411904B
:10382000641C40988442F0DB4098401E119991FB43
:10383000F0F0119041F27071119891FBF0F15498F1
:10384000016001215598017005E0A4495498016078
:10385000002155980170002407E012A850F82400B8
:10386000801C30A941F82400641C40988442F4DB99
:1038700000240CE0469850F82400954941F82400B3
:10388000489850F82400964941F82400641C4445A7
:10389000F0DB0020429000242DE00120449030A86D
:1038A00050F824A04FF080703F900AF10500B0F569
:1038B000F77F1FDC0A3800281CDD054611E084482C
:1038C00050F825103F9881420ADA449808B1002048
:1038D00044907F4850F825003F9021A840F824509C
:1038E0006D1C0AF105008542E9DB449810B9429845
:1038F000401C4290641C40988442CEDB42980228CF
:1039000008DA7648C9F800000021539801704AB0DF
:10391000BDE8F08F00242EE06D4951F824200B46BD
:10392000611C53F821100A44A11C53F821100A44C9
:10393000E11C53F821105018C11700EB9171891048
:103940001A4642F82410664951F824200B46611C9F
:1039500053F821100A44A11C53F821100A44E11C19
:1039600053F821105018C11700EB917189101A46B5
:1039700042F82410641CB4F5F87FCDDB00200490DD
:103980000026002404E0002005A941F82400641C5E
:10399000052CF8DB00240DE021A850F82400B0F538
:1039A000FA7F06DD4D48C9F80000002153980170E8
:1039B000ADE7641C42988442EEDB0024AFE04FF098
:1039C0007F400D900C9021A9601C51F8200051F807
:1039D0002410401A0A2879DD21A850F8245016E056
:1039E0003B4850F825100C98814204DD384850F8C7
:1039F00025000C900A953A4850F825100D98814200
:103A000004DD374850F825000D900B956D1C21A959
:103A1000601C51F82000A842E2DC601C51F8200034
:103A20002F4951F8200021A951F824102C4A52F8AE
:103A30002110401A21A951F824200B99891A4843D2
:103A4000109021A9601C51F8200051F82410411A4F
:103A5000109890FBF1F021A951F82410204A52F857
:103A600021100844109011460B9851F8201010981E
:103A7000081A109021A9601C51F82000144951F82F
:103A8000200021A951F82410114A52F82110401A9F
:103A900021A951F824200A99891A48430F9021A995
:103AA000601C51F8200051F82410411A0F9890FB27
:103AB000F1F021A951F82410054A52F821100844C8
:103AC0000F9011460B9851F820100BE026E00000F3
:103AD000CC1B00200C1400209C47000819FCFFFFA1
:103AE0009C2300200F98081A0F900C9910984843B7
:103AF000C01103900D990F984843C711002F0DDD99
:103B0000052E0BDA039848B1039800EB8000800083
:103B100090FBF7F005A941F82600761C641C42983A
:103B2000401EA0423FF74BAF314605A800F0ACF86D
:103B3000304606EBD0714FEA610BBBF1010F0CDD93
:103B4000ABF1010105AA52F8211052F82B20881878
:103B500000EBD0714910049103E005A850F82B0048
:103B60000490049802280DDD0498B8280ADA09495F
:103B70000498085C0E900E98C9F800000121539833
:103B8000017005E00448C9F8000000215398017055
:103B900000BFBCE6DA47000819FCFFFFF0B5054698
:103BA0001C46059E012000270F6030E052F820706F
:103BB000B7422BDD52F820C0471E52F82770BC4593
:103BC00024DD012300E05B1CC718A74207DA52F886
:103BD000207000EB030C52F82CC06745F3D052F86C
:103BE000207000EB030C52F82CC067450CDD0F6809
:103BF0000F2F09DAD1F800C00CF101070F6045F86A
:103C00002C005F1C384402E0184400E0401C671E92
:103C10008742CBDCF0BD2DE9F04F05460C469246BD
:103C2000984629465046226800F049F84FF0FF3682
:103C300021E0D4F800B0701C2060771C18E055F823
:103C40002710701C10B94FF0FF3001E055F8260026
:103C5000A1EB0009C14503DCC8F10000814506DA8B
:103C600055F827102268501C206045F822107F1C50
:103C70005F45E4DB761C2068B042DADC2846216828
:103C800000F002F8BDE8F08F30B50C46012213E0D9
:103C900050F82230114605E04D1E50F8255040F8EE
:103CA0002150491E002904DD4D1E50F825509D422B
:103CB000F2DC40F82130521CA242E9DB30BDF0B505
:103CC00003461546012217E051F82240104605E050
:103CD000461E51F8266041F82060401E002808DD8D
:103CE00053F82470461E51F8266053F82660B742F8
:103CF000EEDC41F82040521CAA42E5DBF0BD00009A
:103D000008B501210820FEF799FD0120ADF800005B
:103D100003208DF8020010208DF803006946024848
:103D2000FEF773F908BD0000000C014010B5044611
:103D300021460748FFF7EBF800BF40210448FFF792
:103D400019F80028F9D000200249088010BD0000B1
:103D5000003801407C00002010B545A2012103205D
:103D6000FEF726FDFFF72EFB43490860FDF762FFD3
:103D7000414800680A21B0FBF1F4022322460721E2
:103D80000320FEF7F3FC3DA209210320FEF710FDFE
:103D9000394800680A21B0FBF1F201FB120401234B
:103DA00022460320FEF7E2FC35A201210420FEF7A3
:103DB000FFFCFFF74BF930480068B0F5B47F0DD930
:103DC0004FF400513048FEF7B6F94FF47A70FFF720
:103DD000E3F84FF400512C48FEF7ABF92648006891
:103DE0000A21B0FBF1F42046FFF7A0FF224800684B
:103DF0000A21B0FBF1F201FB12042046FFF796FF07
:103E000022490878FFF792FF20494878FFF78EFF94
:103E10001F4880680A2190FBF1F42046FFF786FFD7
:103E20001B49C868FFF782FF1949096801F11A00A8
:103E3000FFF77CFF16494868FFF778FF0D20FFF772
:103E400075FF0A20FFF772FF10480278032307214D
:103E50000420FEF78BFC26220B210420FEF74CFCED
:103E60000A48427803230D210420FEF77FFC10BD91
:103E7000746977656E3A0000480000202E0000004B
:103E8000786C2678793A0000000C01400E00002082
:103E90006C2B00200FB438B505A800901248009A8A
:103EA0000499FCF70BFA002000900F48FCF776FB12
:103EB000054600BF0D48008800F040000028F9D0FA
:103EC00000240CE00848005D0849091D088000BF77
:103ED0000648008800F040000028F9D0641CAC427D
:103EE000F0D338BC5DF814FBB02B00200044004038
:103EF00010B586B0044601210920FEF79FFC012180
:103F00008804FEF78BFC18208DF817004FF48060B2
:103F1000ADF8140001208DF8160005A91D48FEF724
:103F200074F804208DF817004002ADF81400012049
:103F30008DF8160005A91748FEF767F801940020D0
:103F4000ADF810000C20ADF80E000020ADF80C000C
:103F5000ADF80A00ADF8080001A90F48FEF766FFAA
:103F600027208DF8000001208DF803008DF8010056
:103F70008DF802006846FEF77BFA01210648FEF73D
:103F8000EDFE012240F225510348FEF72AFF06B05C
:103F900010BD0000000C01400048004010B586B084
:103FA000044601210520FEF749FC01218803FEF7A4
:103FB00045FC18208DF817004FF40070ADF8140080
:103FC00001208DF8160005A91D48FEF71EF80420F3
:103FD0008DF817000002ADF8140001208DF81600CE
:103FE00005A91748FEF711F801940020ADF810005C
:103FF0000C20ADF80E000020ADF80C00ADF80A0062
:10400000ADF8080001A90F48FEF710FF25208DF834
:10401000000001208DF803008DF801008DF80200EA
:104020006846FEF725FA01210648FEF797FE0122B1
:1040300040F225510348FEF7D4FE06B010BD000043
:10404000000801400038014070B5044600250948C9
:10405000008800F4004058B1002006490988C1F3E7
:104060000E01054A505421461046FCF785FA0546D4
:10407000284670BD80000020B02F00202DE9F041BF
:1040800005460E461446002700201149088029469F
:1040900010A0FFF7FFFEBCB10FE00A20FEF77CFF87
:1040A0000B48008800F4004038B13046FFF7CCFFE1
:1040B00000B106E0002006490880601E80B20400BE
:1040C000EBD100BF04B901273846BDE8F0810000FC
:1040D0008000002025730D0A0000000010B50029A3
:1040E0000AD00878002807D005487844FDF778F909
:1040F000002801D0002010BD0248784410BD000007
:104100004E0F0000460F000010B500290AD00878B5
:10411000002807D005487844FDF762F9002801D04F
:10412000002010BD0248784410BD00003E0F000082
:10413000360F00004FEA41034FEA5353A3F5806363
:10414000D3F11E03C8BFD3F1210C0CDD4FF00042A8
:1041500042EAC12242EA505232FA03FC8CEAE17C84
:10416000ACEBE1707047102BC4BF0020704703F523
:10417000787CBCF1FF3F04D06FF0004282EA21005E
:10418000704770B500F0B0F8499224800020704765
:10419000F2E70000DFF848C170B51CEA111E1EBF2F
:1041A0001CEA13159EEA0C0F95EA0C0F00F06F80C5
:1041B00081EA030423EA4C134EEAD47E21EA4C112F
:1041C00041F4801143F48013AE44A1FB024CA0FBE8
:1041D0000365AEF17F7E361955EB0C05A1FB034C50
:1041E0004CF10003A0FB021C16EB0C06654153F1D9
:1041F0000003094218BF46F0010613F4007F0BD1FB
:104200004FEA03314FEA0530340341EA155140EAE1
:1042100016506FF003020AE04FEAC3214FEAC520AF
:10422000F40241EA555140EA56506FF0020202EBA7
:104230002E4201EB025585EACE710AD05FEA440CAA
:1042400018BF24F0004450F1000041F1000120EAC1
:10425000D47040F2FE7C624500D270BDA84214BF0B
:104260004FF080444FF04044002E08BF0024BEF1C0
:10427000806FA8BFA1F1C041BDE8704080F282808C
:104280004FF0000001F1C04101F0004170479EEA8B
:104290000C0F0CEA131518BF95EA0C0F06D04FF05F
:1042A000000081EA030E0EF0004170BD00F01CF822
:1042B0008900013E00F007B800F009B84FEA430C4E
:1042C0005FEA5C5C08D081EA030100F05BB84FEA6A
:1042D000410C5FEA5C5CF6D14FF000000149704789
:1042E0000000FF070000F87F0EF1020E2EF0030E13
:1042F0005EF8046B364205D4012A43EB030515F53D
:10430000001F12D8012841EB010C1CF5001F0CD82E
:104310000ED14FEAD17C15F5001F0CEB4C0C0CF1C3
:10432000020C08BF4CEBD37C04E04FF0080C01E01A
:104330004FEAD37C0CEB4C0526FA05F606F007068F
:10434000B6F1040C06D20EEB860CBDE870404CF0C2
:10435000010C6047DFE80CF0090B02024FF000414E
:104360004FF00000A1F5002170BD1946104601284C
:1043700051EB010418BFD4F5001484BF002001F0F4
:10438000004170BD0808A0F500114FEA31017047E7
:1043900043004FEAD30C4FEA3C0C43401FBF400799
:1043A0000CF1605113F0FE4F70471CF0006F03D109
:1043B00000200CF0004170470CF0004343EA5070BD
:1043C00010B540EACC0000F09AF900BF000000925E
:1043D0004FEA0001FFF7D6BF4FF000414FF0000059
:1043E000A1F50021704700004FF47F0C1CEAD012A9
:1043F0001EBF1CEAD11392EA0C0F93EA0C0F00F0D7
:10440000858090EA010F48BF42F4807240F4000CAE
:1044100041F400002CF07F4120F07F4000B5814244
:10442000A2EB03020FF2081CACEB504EC0F10000EF
:104430009EF800E04FEA4E0E00FB0EFC38BF49002C
:104440004FEA2C1C02F5FA020CFB0EF34FEACE1ECB
:104450004FEA112C4FEAC1210EEB635E42EB224280
:104460000EFB0CFC4FEA1C5300FB03114FEA112C0E
:104470004FEA01310EFB0CFC4FEADC4C00FB0C1147
:10448000C14228BF09184CEB03335DF804EB10EB75
:10449000410143EBC250B2F57C0F38BF704729D5BC
:1044A00012F0F00F1CBF00F1C04000F00040704758
:1044B000008182838485868788898B8C8D8E8F91FD
:1044C0009293959697999A9C9D9FA0A2A3A5A7A821
:1044D000AAACAEB0B2B3B5B7B9BCBEC0C2C5C7C94D
:1044E000CCCED1D4D7D9DCDFE2E6E9ECF0F3F7FAB1
:1044F000FE0000004FEA400C0CF1807CBCF17E4FC6
:1045000028BF7047B0F1C04000F03FB990EA010FFA
:104510000CEAD11348BF42F48072624538BF63454C
:1045200007D213F47F0F16D080EA010000F000409C
:10453000704710B500F0E3F8097EFC3E00F005B8C6
:1045400080EA010000F00040704780EA010000F0BE
:10455000004000F01AB912F47F0F04BF0248704700
:1045600080EA010000F011B90000C07F41000B0E8D
:10457000D3F19E0208D950F400034FEA032323FA33
:1045800002F048BF4042704710B500F0B8F800BFD5
:1045900049922480002070476FF0004282EA200098
:1045A0007047000010F0004148BF4042B0FA80F36D
:1045B00010FA03F2C3F19D030BD051EAC35101EB92
:1045C0001220530638BF704700F1010008BF20F0E9
:1045D00001007047B0FA80F310FA03F2C3F19D03B3
:1045E0000AD0D90501EB1220530638BF704700F1FD
:1045F000010008BF20F00100704700004FF47F0C5D
:104600001CEAD0121EBF1CEAD11392EA0C0F93EAE7
:104610000C0F00F0478090EA010F48BF42F480720F
:104620004FF0004C4CEA00204CEA012102EB03025F
:10463000A0FB0113A2F50002002918BF43F00103FB
:104640005B0028BF4FEA330342EB22425FEA132CA0
:104650004CEBC2502EBFBCEB436FB2F57C0F7047E2
:104660004FEA036CBCF1004F08BF20F00100B2F527
:104670007C0F38BF70470BD582F0FF0212F5803FE8
:10468000C8BF704700F1C040D8BF00F0004070477D
:1046900000F5000C5FEA4C0C48BF7047B0F1C04019
:1046A00000F073B890EA010F0CEAD11348BF42F44E
:1046B0008072624538BF634504D280EA010000F091
:1046C0000040704710B500F01AF800BF8900013EA5
:1046D00000F007B800F009B85FEA410C5FEA1C6C13
:1046E00008D080EA010000F050B85FEA400C5FEAB1
:1046F0001C6CF6D14FF00040A0F5800070470EF121
:10470000020E2EF0030E5EF8044B244204D44FEA4E
:104710004102B2F17F4F11D84FEA4003B3F17F4F0E
:104720000CD80ED14FEAD07CB2F17F4F0CEB4C0C81
:104730000CF1020C08BF4CEBD17C04E04FF0080CEC
:1047400001E04FEAD17C0CEB4C0324FA03F404F0B3
:104750000704B4F1040C06D20EEB840CBDE8104043
:104760004CF0010C6047DFE80CF0070802024FF044
:104770000040A0F5800010BD0846420018BFD2F1ED
:10478000807288BF00F0004010BDFF2141EAD05088
:10479000C0057047FCF74CBAFCF780BB2900140138
:1047A00000021401290000000000000000000000C9
:1047B00000000000000000000000000000000000F9
:1047C00000000000000000000000000000000000E9
:1047D000000000000000000000005F5F5F6060609C
:1047E00061616161616262626262636363636363A8
:1047F000636364646464646464646464646464647B
:104800006464646464646363636363636363626274
:104810006262626261616161606060605F5F5F5E91
:104820005E5E5D5D5D5C5C5C5B5B5A5A59595958D4
:10483000585757565655555454535252515150503B
:104840004F4E4E4D4C4C4B4A4A49484847464545C9
:104850004443424241403F3E3E3D3C3B3A3938387A
:1048600037363534333231302F2E2D2C2B2A292850
:10487000272625242322211F1E1D1C1B1A1917164B
:1048800015141311100F0E0C0B0A0907060503026D
:104890000100000000000000000000000000000017
:1048A0000000000000F800000000000000333000AD
:1048B000000000100C06100C0600000000000000B4
:1048C000000040C07840C0784000043F04043F042A
:1048D0000400007088FC08300000001820FF211E32
:1048E0000000F008F000E018000000211C031E2169
:1048F0001E0000F00888700000001E2123241927E4
:10490000211010160E000000000000000000000042
:104910000000000000E0180402000000000718205A
:10492000400000020418E0000000004020180700CA
:104930000000404080F0804040000202010F010270
:104940000200000000F0000000000101011F010151
:104950000100000000000000000080B070000000B6
:104960000000000000000000000000010101010142
:1049700001010000000000000000003030000000D5
:1049800000000000000080601804006018060100AC
:10499000000000E010080810E000000F10202010B8
:1049A0000F00001010F8000000000020203F202021
:1049B00000000070080808887000003028242221B8
:1049C000300000300888884830000018202020116E
:1049D0000E000000C02010F8000000070424243F4F
:1049E000240000F8088888080800001921202011F8
:1049F0000E0000E0108888180000000F1120201120
:104A00000E0000380808C83808000000003F000009
:104A100000000070880808887000001C22212122F4
:104A20001C0000E010080810E000000031222211F4
:104A30000F00000000C0C000000000000030300087
:104A40000000000000800000000000008060000006
:104A5000000000008040201008000001020408103F
:104A6000200040404040404040000404040404044E
:104A700004000008102040800000002010080402FC
:104A80000100007048080808F000000000303601FE
:104A90000000C030C828E810E000071827242314BD
:104AA0000B000000C038E0000000203C2302022779
:104AB000382008F8888888700000203F20202011C6
:104AC0000E00C03008080808380007182020201001
:104AD000080008F808080810E000203F20202010F7
:104AE0000F0008F88888E8081000203F20202320C5
:104AF000180008F88888E8081000203F200003000C
:104B00000000C03008080838000007182020221EC6
:104B1000020008F808000008F808203F21010121E0
:104B20003F20000808F8080800000020203F20204F
:104B3000000000000808F8080800C08080807F009E
:104B4000000008F888C028180800203F20012638F7
:104B5000200008F8080000000000203F202020204E
:104B6000300008F8F800F8F80800203F003F003F48
:104B7000200008F830C00008F808203F200007187F
:104B80003F00E01008080810E0000F10202020105F
:104B90000F0008F808080808F000203F2101010173
:104BA0000000E01008080810E0000F182424385016
:104BB0004F0008F8888888887000203F2000030C88
:104BC0003020007088080808380000382021212291
:104BD0001C00180808F8080818000000203F2000F2
:104BE000000008F808000008F808001F2020202016
:104BF0001F000878880000C83808000007380E0138
:104C00000000F80800F80008F800033C0700073C23
:104C10000300081868808068180820302C03032CD3
:104C200030200838C800C83808000000203F2000A5
:104C3000000010080808C838080020382621202065
:104C40001800000000FE020202000000007F404049
:104C50004000000C30C000000000000000010638D9
:104C6000C00000020202FE000000004040407F0041
:104C70000000000004020202040000000000000026
:104C80000000000000000000000080808080808024
:104C9000808000020204000000000000000000000C
:104CA0000000000080808080000000192422222261
:104CB0003F2008F8008080000000003F11202011F4
:104CC0000E000000008080800000000E11202020D7
:104CD0001100000000808088F800000E11202010D4
:104CE0003F200000808080800000001F22222222BE
:104CF0001300008080F0888888180020203F202042
:104D000000000000808080808000006B9494949369
:104D1000600008F8008080800000203F2100002013
:104D20003F2000809898000000000020203F2020B5
:104D30000000000000809898000000C08080807F04
:104D4000000008F8000080808000203F24022D3001
:104D50002000000808F8000000000020203F20206C
:104D600000008080808080808000203F20003F20E5
:104D7000003F8080008080800000203F21000020D4
:104D80003F200000808080800000001F2020202025
:104D90001F00808000808000000080FFA120201183
:104DA0000E000000008080808000000E112020A0F6
:104DB000FF80808080008080800020203F212000B4
:104DC000010000008080808080000033242424249F
:104DD0001900008080E0808000000000001F20207B
:104DE00000008080000000808000001F2020201034
:104DF0003F20808080000080808000010E30080607
:104E0000010080800080008080800F300C030C3017
:104E10000F0000808000808080000020312E0E3145
:104E20002000808080000080808080818E70180645
:104E3000010000808080808080000021302C2221B1
:104E4000300000000000807C020200000000003FF3
:104E5000404000000000FF00000000000000FF00D4
:104E600000000002027C800000000040403F000083
:104E7000000000060101020204040000000000001E
:104E80000000040000080000000000000002000113
:104E9000000010000000000000000000303132333C
:104EA000343536373839414243444546403058005E
:104EB0003031323334353637383961626364656690
:104EC000403078003031323334353637383961622A
:104ED0006364656678700030313233343536373884
:104EE000394142434445465850000000024000000A
:104EF000000000A00000000005400000000000C805
:104F0000000000000C4000000000409C0000000079
:104F1000194000000020BCBE00000000344000002A
:104F2000BFC91B8E00000004B5400000504BCFD01D
:104F30006607E2CF010000006C4100003E8251AAEA
:104F4000DFEEA73401000000D9420000DCB5A0E28A
:104F50003A301F97FFFFFFFFB4450000FD25A0C8B2
:104F6000E9A3C14FFFFFFFFFFF3F000000000080EB
:104F700000000000FF3F0000000000800000000073
:104F80002B4D515454535542524543563A302C22DE
:104F900064626C645F6C6564222C362C4C45444F13
:104FA000464600002B4D51545453554252454356EA
:104FB0003A302C2264626C645F6C6564222C352C60
:104FC0004C45444F4E00000041542B4D5154545019
:104FD00055423D302C2264626C645F6461746122CE
:104FE0002C227B74656D703A25642E25645C2C68D8
:104FF000756D693A25642E25645C2C746977656E3D
:105000003A25645C2C786C2678793A2564262564E8
:105010007D222C302C30000064510008000000205C
:10502000840000006C010008E851000884000020A2
:105030008C390000880100081C00000043000000BB
:10504000F8FFFFFF0C0000000E0000000F00000042
:105050002E0000001001000043000000F8FFFFFFD9
:10506000004040404040404040404141414141407B
:105070004040404040404040404040404040404030
:1050800040050202020202020202020202020202BF
:1050900002202020202020202020200202020202C4
:1050A000020290909090909010101010101010101C
:1050B0001010101010101010101010100202020228
:1050C000020288888888888808080808080808086C
:1050D0000808080808080808080808080202020268
:1050E0004000000000000000000000000000000080
:1050F00000000000000000000000000000000000B0
:10510000000000000000000000000000000000009F
:10511000000000000000000000000000000000008F
:10512000000000000000000000000000000000007F
:10513000000000000000000000000000000000006F
:10514000000000000000000000000000000000005F
:10515000000000000000000000000000000000004F
:1051600000000000A44F0008804F0008000000006D
:10517000000000000000000000000000000000002F
:10518000000000000000000000000000000000001F
:10519000000000000000000000000000000000000F
:1051A00000000000000000000000000000000000FF
:1051B00000A24A04000000000000000001020304F5
:1051C00006070809000000000000000001020304B7
:1051D0000102030406070809020406080000000093
:0851E0000000000000000000C7
:040000050800027974
:00000001FF
